{
  "_format": "hh-sol-artifact-1",
  "contractName": "RevertingSellerAgent",
  "sourceName": "contracts/test/AdversarialHelpers.sol",
  "abi": [
    {
      "inputs": [
        {
          "internalType": "address",
          "name": "escrowAddress",
          "type": "address"
        }
      ],
      "stateMutability": "nonpayable",
      "type": "constructor"
    },
    {
      "inputs": [
        {
          "internalType": "string",
          "name": "orderId",
          "type": "string"
        },
        {
          "internalType": "uint256",
          "name": "duration",
          "type": "uint256"
        },
        {
          "internalType": "uint256",
          "name": "reservePrice",
          "type": "uint256"
        },
        {
          "internalType": "uint256",
          "name": "minBidIncrement",
          "type": "uint256"
        },
        {
          "internalType": "string",
          "name": "ipfsHash",
          "type": "string"
        }
      ],
      "name": "createAuction",
      "outputs": [],
      "stateMutability": "nonpayable",
      "type": "function"
    },
    {
      "inputs": [
        {
          "internalType": "string",
          "name": "orderId",
          "type": "string"
        }
      ],
      "name": "endAuction",
      "outputs": [],
      "stateMutability": "nonpayable",
      "type": "function"
    },
    {
      "inputs": [],
      "name": "escrow",
      "outputs": [
        {
          "internalType": "contract IArtAuctionEscrowExternal",
          "name": "",
          "type": "address"
        }
      ],
      "stateMutability": "view",
      "type": "function"
    },
    {
      "inputs": [
        {
          "internalType": "string",
          "name": "orderId",
          "type": "string"
        },
        {
          "internalType": "string",
          "name": "trackingHash",
          "type": "string"
        }
      ],
      "name": "markShipped",
      "outputs": [],
      "stateMutability": "nonpayable",
      "type": "function"
    },
    {
      "stateMutability": "payable",
      "type": "receive"
    }
  ],
  "bytecode": "0x60a060405234801561001057600080fd5b506040516105f43803806105f483398101604081905261002f91610040565b6001600160a01b0316608052610070565b60006020828403121561005257600080fd5b81516001600160a01b038116811461006957600080fd5b9392505050565b60805161055561009f6000396000818160db01528181610150015281816101e3015261026a01526105556000f3fe6080604052600436106100435760003560e01c806341e776ac14610087578063ce2ba9bf146100a9578063e2fdcc17146100c9578063ff70a1621461011957600080fd5b366100825760405162461bcd60e51b815260206004820152600b60248201526a2932b532b1ba22ba3432b960a91b604482015260640160405180910390fd5b600080fd5b34801561009357600080fd5b506100a76100a2366004610326565b610139565b005b3480156100b557600080fd5b506100a76100c43660046103b3565b6101cc565b3480156100d557600080fd5b506100fd7f000000000000000000000000000000000000000000000000000000000000000081565b6040516001600160a01b03909116815260200160405180910390f35b34801561012557600080fd5b506100a76101343660046103f5565b610250565b604051631079ddab60e21b81526001600160a01b037f000000000000000000000000000000000000000000000000000000000000000016906341e776ac90610191908a908a908a908a908a908a908a9060040161048a565b600060405180830381600087803b1580156101ab57600080fd5b505af11580156101bf573d6000803e3d6000fd5b5050505050505050505050565b60405163ce2ba9bf60e01b81526001600160a01b037f0000000000000000000000000000000000000000000000000000000000000000169063ce2ba9bf9061021a90859085906004016104d1565b600060405180830381600087803b15801561023457600080fd5b505af1158015610248573d6000803e3d6000fd5b505050505050565b60405160016247af4f60e11b031981526001600160a01b037f0000000000000000000000000000000000000000000000000000000000000000169063ff70a162906102a59087908790879087906004016104ed565b600060405180830381600087803b1580156102bf57600080fd5b505af11580156102d3573d6000803e3d6000fd5b5050505050505050565b60008083601f8401126102ef57600080fd5b50813567ffffffffffffffff81111561030757600080fd5b60208301915083602082850101111561031f57600080fd5b9250929050565b600080600080600080600060a0888a03121561034157600080fd5b873567ffffffffffffffff8082111561035957600080fd5b6103658b838c016102dd565b909950975060208a0135965060408a0135955060608a0135945060808a013591508082111561039357600080fd5b506103a08a828b016102dd565b989b979a50959850939692959293505050565b600080602083850312156103c657600080fd5b823567ffffffffffffffff8111156103dd57600080fd5b6103e9858286016102dd565b90969095509350505050565b6000806000806040858703121561040b57600080fd5b843567ffffffffffffffff8082111561042357600080fd5b61042f888389016102dd565b9096509450602087013591508082111561044857600080fd5b50610455878288016102dd565b95989497509550505050565b81835281816020850137506000828201602090810191909152601f909101601f19169091010190565b60a08152600061049e60a08301898b610461565b87602084015286604084015285606084015282810360808401526104c3818587610461565b9a9950505050505050505050565b6020815260006104e5602083018486610461565b949350505050565b604081526000610501604083018688610461565b8281036020840152610514818587610461565b97965050505050505056fea2646970667358221220aca917f1ba628fec3cb78e6c336c73168b2c338c1c3dd48efea42950e0d0b40664736f6c63430008140033",
  "linkReferences": {},
  "deployedLinkReferences": {}
}