{"contracts/ArtAuctionEscrow.sol":{"ArtAuctionEscrow":{"abi":[{"inputs":[{"internalType":"address","name":"_arbiter","type":"address"},{"internalType":"address payable","name":"_platformWallet","type":"address"},{"internalType":"uint256","name":"_platformFeeBps","type":"uint256"}],"stateMutability":"nonpayable","type":"constructor"},{"inputs":[{"internalType":"string","name":"orderId","type":"string"}],"name":"AuctionAlreadyExists","type":"error"},{"inputs":[],"name":"AuctionNotExpired","type":"error"},{"inputs":[{"internalType":"string","name":"orderId","type":"string"}],"name":"AuctionNotFound","type":"error"},{"inputs":[{"internalType":"uint256","name":"sent","type":"uint256"},{"internalType":"uint256","name":"required","type":"uint256"}],"name":"BidBelowMinimum","type":"error"},{"inputs":[{"internalType":"uint256","name":"sent","type":"uint256"},{"internalType":"uint256","name":"required","type":"uint256"}],"name":"BidIncrementTooLow","type":"error"},{"inputs":[],"name":"DeliveryDeadlineNotPassed","type":"error"},{"inputs":[],"name":"DeliveryDeadlinePassed","type":"error"},{"inputs":[],"name":"DisputeDeadlineNotPassed","type":"error"},{"inputs":[{"internalType":"uint256","name":"fee","type":"uint256"},{"internalType":"uint256","name":"max","type":"uint256"}],"name":"FeeExceedsMaximum","type":"error"},{"inputs":[],"name":"HasExistingBids","type":"error"},{"inputs":[],"name":"InvalidDuration","type":"error"},{"inputs":[],"name":"InvalidMinBidIncrement","type":"error"},{"inputs":[{"internalType":"enum ArtAuctionEscrow.State","name":"current","type":"uint8"},{"internalType":"enum ArtAuctionEscrow.State","name":"expected","type":"uint8"}],"name":"InvalidState","type":"error"},{"inputs":[],"name":"NoFundsToWithdraw","type":"error"},{"inputs":[],"name":"NotArbiter","type":"error"},{"inputs":[],"name":"NotBuyer","type":"error"},{"inputs":[],"name":"NotSeller","type":"error"},{"inputs":[],"name":"ReentrancyGuardReentrantCall","type":"error"},{"inputs":[],"name":"SellerCannotBid","type":"error"},{"inputs":[],"name":"ShippingDeadlineNotPassed","type":"error"},{"inputs":[],"name":"ShippingDeadlinePassed","type":"error"},{"inputs":[],"name":"TransferFailed","type":"error"},{"inputs":[],"name":"ZeroAddress","type":"error"},{"anonymous":false,"inputs":[{"indexed":false,"internalType":"string","name":"orderId","type":"string"},{"indexed":true,"internalType":"address","name":"seller","type":"address"},{"indexed":false,"internalType":"string","name":"trackingHash","type":"string"}],"name":"ArtShipped","type":"event"},{"anonymous":false,"inputs":[{"indexed":false,"internalType":"string","name":"orderId","type":"string"},{"indexed":false,"internalType":"string","name":"reason","type":"string"}],"name":"AuctionCancelled","type":"event"},{"anonymous":false,"inputs":[{"indexed":false,"internalType":"string","name":"orderId","type":"string"},{"indexed":true,"internalType":"address","name":"winner","type":"address"},{"indexed":false,"internalType":"uint256","name":"amount","type":"uint256"}],"name":"AuctionEnded","type":"event"},{"anonymous":false,"inputs":[{"indexed":false,"internalType":"string","name":"orderId","type":"string"},{"indexed":false,"internalType":"uint256","name":"newEndTime","type":"uint256"}],"name":"AuctionExtended","type":"event"},{"anonymous":false,"inputs":[{"indexed":false,"internalType":"string","name":"orderId","type":"string"},{"indexed":true,"internalType":"address","name":"seller","type":"address"},{"indexed":false,"internalType":"uint256","name":"endTime","type":"uint256"}],"name":"AuctionStarted","type":"event"},{"anonymous":false,"inputs":[{"indexed":false,"internalType":"string","name":"orderId","type":"string"},{"indexed":true,"internalType":"address","name":"winner","type":"address"}],"name":"DeliveryConfirmed","type":"event"},{"anonymous":false,"inputs":[{"indexed":false,"internalType":"string","name":"orderId","type":"string"},{"indexed":true,"internalType":"address","name":"seller","type":"address"}],"name":"DeliveryTimeout","type":"event"},{"anonymous":false,"inputs":[{"indexed":false,"internalType":"string","name":"orderId","type":"string"},{"indexed":true,"internalType":"address","name":"buyer","type":"address"},{"indexed":false,"internalType":"string","name":"reason","type":"string"}],"name":"DisputeOpened","type":"event"},{"anonymous":false,"inputs":[{"indexed":false,"internalType":"string","name":"orderId","type":"string"},{"indexed":true,"internalType":"address","name":"arbiter","type":"address"},{"indexed":false,"internalType":"bool","name":"favorBuyer","type":"bool"}],"name":"DisputeResolved","type":"event"},{"anonymous":false,"inputs":[{"indexed":false,"internalType":"string","name":"orderId","type":"string"},{"indexed":true,"internalType":"address","name":"bidder","type":"address"},{"indexed":false,"internalType":"uint256","name":"amount","type":"uint256"}],"name":"NewBid","type":"event"},{"anonymous":false,"inputs":[{"indexed":false,"internalType":"string","name":"orderId","type":"string"},{"indexed":true,"internalType":"address","name":"buyer","type":"address"}],"name":"ShippingTimeout","type":"event"},{"anonymous":false,"inputs":[{"indexed":true,"internalType":"address","name":"bidder","type":"address"},{"indexed":false,"internalType":"uint256","name":"amount","type":"uint256"}],"name":"Withdrawn","type":"event"},{"inputs":[],"name":"ANTI_SNIPE_EXTENSION","outputs":[{"internalType":"uint256","name":"","type":"uint256"}],"stateMutability":"view","type":"function"},{"inputs":[],"name":"ANTI_SNIPE_WINDOW","outputs":[{"internalType":"uint256","name":"","type":"uint256"}],"stateMutability":"view","type":"function"},{"inputs":[],"name":"DELIVERY_WINDOW","outputs":[{"internalType":"uint256","name":"","type":"uint256"}],"stateMutability":"view","type":"function"},{"inputs":[],"name":"DISPUTE_WINDOW","outputs":[{"internalType":"uint256","name":"","type":"uint256"}],"stateMutability":"view","type":"function"},{"inputs":[],"name":"MAX_FEE_BPS","outputs":[{"internalType":"uint256","name":"","type":"uint256"}],"stateMutability":"view","type":"function"},{"inputs":[],"name":"SHIPPING_WINDOW","outputs":[{"internalType":"uint256","name":"","type":"uint256"}],"stateMutability":"view","type":"function"},{"inputs":[],"name":"arbiter","outputs":[{"internalType":"address","name":"","type":"address"}],"stateMutability":"view","type":"function"},{"inputs":[{"internalType":"string","name":"orderId","type":"string"}],"name":"bid","outputs":[],"stateMutability":"payable","type":"function"},{"inputs":[{"internalType":"string","name":"orderId","type":"string"}],"name":"cancelAuction","outputs":[],"stateMutability":"nonpayable","type":"function"},{"inputs":[{"internalType":"string","name":"orderId","type":"string"}],"name":"claimDeliveryTimeout","outputs":[],"stateMutability":"nonpayable","type":"function"},{"inputs":[{"internalType":"string","name":"orderId","type":"string"}],"name":"claimDisputeTimeout","outputs":[],"stateMutability":"nonpayable","type":"function"},{"inputs":[{"internalType":"string","name":"orderId","type":"string"}],"name":"claimShippingTimeout","outputs":[],"stateMutability":"nonpayable","type":"function"},{"inputs":[{"internalType":"string","name":"orderId","type":"string"}],"name":"confirmDelivery","outputs":[],"stateMutability":"nonpayable","type":"function"},{"inputs":[{"internalType":"string","name":"orderId","type":"string"},{"internalType":"uint256","name":"duration","type":"uint256"},{"internalType":"uint256","name":"reservePrice","type":"uint256"},{"internalType":"uint256","name":"minBidIncrement","type":"uint256"},{"internalType":"string","name":"ipfsHash","type":"string"}],"name":"createAuction","outputs":[],"stateMutability":"nonpayable","type":"function"},{"inputs":[{"internalType":"string","name":"orderId","type":"string"}],"name":"endAuction","outputs":[],"stateMutability":"nonpayable","type":"function"},{"inputs":[{"internalType":"string","name":"orderId","type":"string"}],"name":"getAuction","outputs":[{"internalType":"address","name":"seller","type":"address"},{"internalType":"address","name":"highestBidder","type":"address"},{"internalType":"uint256","name":"highestBid","type":"uint256"},{"internalType":"uint256","name":"startTime","type":"uint256"},{"internalType":"uint256","name":"endTime","type":"uint256"},{"internalType":"uint256","name":"minBidIncrement","type":"uint256"},{"internalType":"string","name":"ipfsHash","type":"string"},{"internalType":"enum ArtAuctionEscrow.State","name":"state","type":"uint8"}],"stateMutability":"view","type":"function"},{"inputs":[{"internalType":"string","name":"orderId","type":"string"}],"name":"getAuctionTimeline","outputs":[{"internalType":"string","name":"trackingHash","type":"string"},{"internalType":"uint256","name":"shippingDeadline","type":"uint256"},{"internalType":"uint256","name":"deliveryDeadline","type":"uint256"},{"internalType":"uint256","name":"disputeDeadline","type":"uint256"},{"internalType":"uint256","name":"reservePrice","type":"uint256"}],"stateMutability":"view","type":"function"},{"inputs":[{"internalType":"string","name":"orderId","type":"string"},{"internalType":"string","name":"_trackingHash","type":"string"}],"name":"markShipped","outputs":[],"stateMutability":"nonpayable","type":"function"},{"inputs":[{"internalType":"string","name":"orderId","type":"string"},{"internalType":"string","name":"reason","type":"string"}],"name":"openDispute","outputs":[],"stateMutability":"nonpayable","type":"function"},{"inputs":[{"internalType":"address","name":"","type":"address"}],"name":"pendingReturns","outputs":[{"internalType":"uint256","name":"","type":"uint256"}],"stateMutability":"view","type":"function"},{"inputs":[],"name":"platformFeeBps","outputs":[{"internalType":"uint256","name":"","type":"uint256"}],"stateMutability":"view","type":"function"},{"inputs":[],"name":"platformWallet","outputs":[{"internalType":"address payable","name":"","type":"address"}],"stateMutability":"view","type":"function"},{"inputs":[{"internalType":"string","name":"orderId","type":"string"},{"internalType":"bool","name":"favorBuyer","type":"bool"}],"name":"resolveDispute","outputs":[],"stateMutability":"nonpayable","type":"function"},{"inputs":[],"name":"withdraw","outputs":[],"stateMutability":"nonpayable","type":"function"}],"evm":{"bytecode":{"linkReferences":{},"object":"60e06040523480156200001157600080fd5b506040516200269838038062002698833981016040819052620000349162000110565b60017f9b779b17422d0df92223018b32b4d1fa46e071723d6817e2486d003becc55f00556001600160a01b038316620000805760405163d92e233d60e01b815260040160405180910390fd5b6001600160a01b038216620000a85760405163d92e233d60e01b815260040160405180910390fd5b6103e8811115620000db5760405163037664ab60e21b8152600481018290526103e8602482015260440160405180910390fd5b6001600160a01b03928316608052911660c05260a05262000158565b6001600160a01b03811681146200010d57600080fd5b50565b6000806000606084860312156200012657600080fd5b83516200013381620000f7565b60208501519093506200014681620000f7565b80925050604084015190509250925092565b60805160a05160c0516124fb6200019d600039600081816103f60152611be20152600081816101840152611b99015260008181610442015261173201526124fb6000f3fe60806040526004361061014b5760003560e01c8063b60e7a3b116100b6578063e995478e1161006f578063e995478e14610382578063edd8184914610399578063f585dc57146103cd578063fa2af9da146103e4578063fe25e00a14610430578063ff70a1621461046457600080fd5b8063b60e7a3b146102f6578063ce2ba9bf14610316578063ce42262614610336578063d55be8c614610356578063d789a68d1461036c578063debe3c1d1461036c57600080fd5b806341e776ac1161010857806341e776ac1461024c57806345582af51461026c5780634c266c081461028c5780637aef951c146102a357806381b1102c146102b6578063a4506460146102d657600080fd5b80631d6ab05a1461015057806322dcd13e1461017257806326b387bb146101b9578063386e52e0146101e65780633ccfd60b146102065780633e4334911461021b575b600080fd5b34801561015c57600080fd5b5061017061016b366004611d67565b610484565b005b34801561017e57600080fd5b506101a67f000000000000000000000000000000000000000000000000000000000000000081565b6040519081526020015b60405180910390f35b3480156101c557600080fd5b506101a66101d4366004611da9565b60016020526000908152604090205481565b3480156101f257600080fd5b50610170610201366004611dd9565b610621565b34801561021257600080fd5b5061017061079d565b34801561022757600080fd5b5061023b610236366004611d67565b61089e565b6040516101b0959493929190611e8b565b34801561025857600080fd5b50610170610267366004611ec2565b610982565b34801561027857600080fd5b50610170610287366004611d67565b610c19565b34801561029857600080fd5b506101a66206978081565b6101706102b1366004611d67565b610d70565b3480156102c257600080fd5b506101706102d1366004611d67565b611056565b3480156102e257600080fd5b506101706102f1366004611d67565b6111ef565b34801561030257600080fd5b50610170610311366004611d67565b61132c565b34801561032257600080fd5b50610170610331366004611d67565b611481565b34801561034257600080fd5b50610170610351366004611f4f565b61171f565b34801561036257600080fd5b506101a66103e881565b34801561037857600080fd5b506101a661025881565b34801561038e57600080fd5b506101a66212750081565b3480156103a557600080fd5b506103b96103b4366004611d67565b6118d9565b6040516101b0989796959493929190611fe3565b3480156103d957600080fd5b506101a662278d0081565b3480156103f057600080fd5b506104187f000000000000000000000000000000000000000000000000000000000000000081565b6040516001600160a01b0390911681526020016101b0565b34801561043c57600080fd5b506104187f000000000000000000000000000000000000000000000000000000000000000081565b34801561047057600080fd5b5061017061047f366004611dd9565b6119fa565b61048c611b6e565b8181600082826040516104a0929190612044565b90815260405190819003602001902054336001600160a01b03909116146104da57604051635ec8235160e01b815260040160405180910390fd5b8383600260008084846040516104f1929190612044565b908152604051908190036020019020600c015460ff16905081600581111561051b5761051b611fab565b81600581111561052d5761052d611fab565b14610558578082604051633bf2e2f960e11b815260040161054f929190612054565b60405180910390fd5b600080898960405161056b929190612044565b9081526020016040518091039020905080600a0154421161059f5760405163e25501c360e01b815260040160405180910390fd5b6105a881611b8a565b600c8101805460ff1916600417905580546040516001600160a01b03909116907fb7d3ae1c4f73c35c6ad61517596e4178a4f90ac84634471f558dfa95432f4b92906105f7908c908c90612098565b60405180910390a25050505050505061061d60016000805160206124a683398151915255565b5050565b838360008282604051610635929190612044565b90815260405190819003602001902060010154336001600160a01b03909116146106725760405163239700bf60e11b815260040160405180910390fd5b858560026000808484604051610689929190612044565b908152604051908190036020019020600c015460ff1690508160058111156106b3576106b3611fab565b8160058111156106c5576106c5611fab565b146106e7578082604051633bf2e2f960e11b815260040161054f929190612054565b6000808b8b6040516106fa929190612044565b9081526020016040518091039020905080600a015442111561072f576040516358afec4360e11b815260040160405180910390fd5b61073c62278d00426120ca565b600b820155600c8101805460ff1916600317905560405133907f8fa54471e8aa7b918984b3ecb2fa16fcf4c3994d80f5102c193de432c7f0b48490610788908e908e908e908e906120e3565b60405180910390a25050505050505050505050565b6107a5611b6e565b33600090815260016020526040812054908190036107d6576040516367e3990d60e01b815260040160405180910390fd5b336000818152600160205260408082208290555190919083908381818185875af1925050503d8060008114610827576040519150601f19603f3d011682016040523d82523d6000602084013e61082c565b606091505b505090508061084e576040516312171d8360e31b815260040160405180910390fd5b60405182815233907f7084f5476618d8e60b11ef0d7d3f06914655adb8793e28ff7f018d4c76d505d59060200160405180910390a2505061089c60016000805160206124a683398151915255565b565b606060008060008060008088886040516108b9929190612044565b9081526020016040518091039020905080600801816009015482600a015483600b015484600501548480546108ed90612115565b80601f016020809104026020016040519081016040528092919081815260200182805461091990612115565b80156109665780601f1061093b57610100808354040283529160200191610966565b820191906000526020600020905b81548152906001019060200180831161094957829003601f168201915b5050505050945095509550955095509550509295509295909350565b60006001600160a01b03166000888860405161099f929190612044565b908152604051908190036020019020546001600160a01b0316146109da57868660405163c377f72760e01b815260040161054f929190612098565b846000036109fb57604051637616640160e01b815260040160405180910390fd5b82600003610a1c576040516351fd6a9560e11b815260040160405180910390fd5b6000610a2886426120ca565b9050604051806101a00160405280336001600160a01b0316815260200160006001600160a01b031681526020016000815260200142815260200182815260200186815260200185815260200184848080601f016020809104026020016040519081016040528093929190818152602001838380828437600092018290525093855250506040805160208082018352848252850152808401839052606084018390526080840183905260a0909301829052509051610ae8908b908b90612044565b9081526040805160209281900383019020835181546001600160a01b03199081166001600160a01b03928316178355938501516001830180549095169116179092558201516002820155606082015160038201556080820151600482015560a0820151600582015560c0820151600682015560e08201516007820190610b6e90826121b3565b506101008201516008820190610b8490826121b3565b506101208201516009820155610140820151600a820155610160820151600b820155610180820151600c8201805460ff19166001836005811115610bca57610bca611fab565b0217905550506040513391507f3aca71923d7b755212ed2882f8b3e59833c2c5d38beb9eba440d82b3d92c4e0690610c07908b908b908690612273565b60405180910390a25050505050505050565b818160016000808484604051610c30929190612044565b908152604051908190036020019020600c015460ff169050816005811115610c5a57610c5a611fab565b816005811115610c6c57610c6c611fab565b14610c8e578082604051633bf2e2f960e11b815260040161054f929190612054565b6000808787604051610ca1929190612044565b9081526020016040518091039020905080600901544211610cd55760405163ecd8ea8960e01b815260040160405180910390fd5b60028101546001808301546001600160a01b03166000908152602091909152604081208054909190610d089084906120ca565b9091555050600c8101805460ff1916600517905560018101546040516001600160a01b03909116907f5392961094e9b4c72f0cfa147262277e8731db894bc001c8feefcf4f935971ef90610d5f908a908a90612098565b60405180910390a250505050505050565b610d78611b6e565b818160006001600160a01b031660008383604051610d97929190612044565b908152604051908190036020019020546001600160a01b031603610dd25781816040516308a7e4cd60e21b815260040161054f929190612098565b838360008060008484604051610de9929190612044565b908152604051908190036020019020600c015460ff169050816005811115610e1357610e13611fab565b816005811115610e2557610e25611fab565b14610e47578082604051633bf2e2f960e11b815260040161054f929190612054565b6000808989604051610e5a929190612044565b9081526020016040518091039020905080600401544210610e8e57604051639eafe1b760e01b815260040160405180910390fd5b80546001600160a01b03163303610eb85760405163ef02588960e01b815260040160405180910390fd5b60018101546001600160a01b0316610f03578060060154341015610efe5760068101546040516303dfa95160e61b8152346004820152602481019190915260440161054f565b610f47565b600081600601548260020154610f1991906120ca565b905080341015610f455760405163175e002360e11b81523460048201526024810182905260440161054f565b505b600281015415610f8a5760028101546001808301546001600160a01b03166000908152602091909152604081208054909190610f849084906120ca565b90915550505b6001810180546001600160a01b03191633179055346002820155600481015461025890610fb8904290612297565b101561101957610258816004016000828254610fd491906120ca565b909155505060048101546040517fc7c70c9e2ffe271dc12591a5043c542dca07a7703c879c649965bd66b8fdc37c91611010918c918c91612273565b60405180910390a15b336001600160a01b03167f7a1ef295a7b3ead528a3d5dc5108df6fbe47739a34aa589a11433b98ce53c60e8a8a346040516105f793929190612273565b81816000828260405161106a929190612044565b90815260405190819003602001902060010154336001600160a01b03909116146110a75760405163239700bf60e11b815260040160405180910390fd5b8383600360008084846040516110be929190612044565b908152604051908190036020019020600c015460ff1690508160058111156110e8576110e8611fab565b8160058111156110fa576110fa611fab565b1461111c578082604051633bf2e2f960e11b815260040161054f929190612054565b600080898960405161112f929190612044565b9081526020016040518091039020905080600b015442116111635760405163b35e213960e01b815260040160405180910390fd5b60028101546001808301546001600160a01b031660009081526020919091526040812080549091906111969084906120ca565b9091555050600c8101805460ff191660051790556040517fd5989fe57d188d07680988d847d1bc67c41c982da0a5cbad9f1678906266e412906111dc908b908b906122aa565b60405180910390a1505050505050505050565b6111f7611b6e565b81816000828260405161120b929190612044565b90815260405190819003602001902060010154336001600160a01b03909116146112485760405163239700bf60e11b815260040160405180910390fd5b83836002600080848460405161125f929190612044565b908152604051908190036020019020600c015460ff16905081600581111561128957611289611fab565b81600581111561129b5761129b611fab565b146112bd578082604051633bf2e2f960e11b815260040161054f929190612054565b60008089896040516112d0929190612044565b908152602001604051809103902090506112e981611b8a565b600c8101805460ff1916600417905560405133907f8e7f2465d57c0d2ee4e9f885968a20b36712b73d9d659a145dd42122beae92c7906105f7908c908c90612098565b818160008282604051611340929190612044565b90815260405190819003602001902054336001600160a01b039091161461137a57604051635ec8235160e01b815260040160405180910390fd5b838360008060008484604051611391929190612044565b908152604051908190036020019020600c015460ff1690508160058111156113bb576113bb611fab565b8160058111156113cd576113cd611fab565b146113ef578082604051633bf2e2f960e11b815260040161054f929190612054565b6000808989604051611402929190612044565b90815260405190819003602001902060018101549091506001600160a01b0316156114405760405163416b68e560e11b815260040160405180910390fd5b600c8101805460ff191660051790556040517fd5989fe57d188d07680988d847d1bc67c41c982da0a5cbad9f1678906266e412906111dc908b908b906122f0565b818160006001600160a01b0316600083836040516114a0929190612044565b908152604051908190036020019020546001600160a01b0316036114db5781816040516308a7e4cd60e21b815260040161054f929190612098565b8383600082826040516114ef929190612044565b90815260405190819003602001902054336001600160a01b039091161461152957604051635ec8235160e01b815260040160405180910390fd5b858560008060008484604051611540929190612044565b908152604051908190036020019020600c015460ff16905081600581111561156a5761156a611fab565b81600581111561157c5761157c611fab565b1461159e578082604051633bf2e2f960e11b815260040161054f929190612054565b6000808b8b6040516115b1929190612044565b9081526020016040518091039020905080600401544210156115e657604051639eafe1b760e01b815260040160405180910390fd5b806005015481600201541015801561160a575060018101546001600160a01b031615155b1561168557600c8101805460ff1916600117905561162b62069780426120ca565b6009820155600181015460028201546040516001600160a01b03909216917fa0fb15ce4bc38fa6151bf16630e38863764a7bb541866d083619bc5b6b93ad0291611678918f918f91612273565b60405180910390a2611712565b6002810154156116c85760028101546001808301546001600160a01b031660009081526020919091526040812080549091906116c29084906120ca565b90915550505b600c8101805460ff191660051790556040517fd5989fe57d188d07680988d847d1bc67c41c982da0a5cbad9f1678906266e41290611709908d908d9061233a565b60405180910390a15b5050505050505050505050565b611727611b6e565b336001600160a01b037f000000000000000000000000000000000000000000000000000000000000000016146117705760405163665b32d360e11b815260040160405180910390fd5b828260036000808484604051611787929190612044565b908152604051908190036020019020600c015460ff1690508160058111156117b1576117b1611fab565b8160058111156117c3576117c3611fab565b146117e5578082604051633bf2e2f960e11b815260040161054f929190612054565b60008088886040516117f8929190612044565b90815260200160405180910390209050851561185a5760028101546001808301546001600160a01b031660009081526020919091526040812080549091906118419084906120ca565b9091555050600c8101805460ff19166005179055611873565b61186381611b8a565b600c8101805460ff191660041790555b336001600160a01b03167fa62ea04fda58cbe56b6565aa2a55f253f8c329b7066634601bce1f15ddce1ee48989896040516118b093929190612386565b60405180910390a250505050506118d460016000805160206124a683398151915255565b505050565b600080600080600080606060008060008b8b6040516118f9929190612044565b908152604051908190036020019020805460018201546002830154600384015460048501546006860154600c8701546007880180549899506001600160a01b0397881698969097169694959394929391929160ff90911690829061195c90612115565b80601f016020809104026020016040519081016040528092919081815260200182805461198890612115565b80156119d55780601f106119aa576101008083540402835291602001916119d5565b820191906000526020600020905b8154815290600101906020018083116119b857829003601f168201915b5050505050915098509850985098509850985098509850509295985092959890939650565b838360008282604051611a0e929190612044565b90815260405190819003602001902054336001600160a01b0390911614611a4857604051635ec8235160e01b815260040160405180910390fd5b858560016000808484604051611a5f929190612044565b908152604051908190036020019020600c015460ff169050816005811115611a8957611a89611fab565b816005811115611a9b57611a9b611fab565b14611abd578082604051633bf2e2f960e11b815260040161054f929190612054565b6000808b8b604051611ad0929190612044565b908152602001604051809103902090508060090154421115611b0557604051630e84de2560e11b815260040160405180910390fd5b60088101611b14898b836123ac565b50611b2262127500426120ca565b600a820155600c8101805460ff1916600217905560405133907fde3af44d31cc177418aa26bb805c695b79c76478f12d0efff2d89cd2c343fde590610788908e908e908e908e906120e3565b611b76611cee565b60026000805160206124a683398151915255565b60028101546000612710611bbe7f00000000000000000000000000000000000000000000000000000000000000008461246c565b611bc89190612483565b90506000611bd68284612297565b90508115611c745760007f00000000000000000000000000000000000000000000000000000000000000006001600160a01b03168360405160006040518083038185875af1925050503d8060008114611c4b576040519150601f19603f3d011682016040523d82523d6000602084013e611c50565b606091505b5050905080611c72576040516312171d8360e31b815260040160405180910390fd5b505b83546040516000916001600160a01b03169083908381818185875af1925050503d8060008114611cc0576040519150601f19603f3d011682016040523d82523d6000602084013e611cc5565b606091505b5050905080611ce7576040516312171d8360e31b815260040160405180910390fd5b5050505050565b6000805160206124a68339815191525460020361089c57604051633ee5aeb560e01b815260040160405180910390fd5b60008083601f840112611d3057600080fd5b50813567ffffffffffffffff811115611d4857600080fd5b602083019150836020828501011115611d6057600080fd5b9250929050565b60008060208385031215611d7a57600080fd5b823567ffffffffffffffff811115611d9157600080fd5b611d9d85828601611d1e565b90969095509350505050565b600060208284031215611dbb57600080fd5b81356001600160a01b0381168114611dd257600080fd5b9392505050565b60008060008060408587031215611def57600080fd5b843567ffffffffffffffff80821115611e0757600080fd5b611e1388838901611d1e565b90965094506020870135915080821115611e2c57600080fd5b50611e3987828801611d1e565b95989497509550505050565b6000815180845260005b81811015611e6b57602081850181015186830182015201611e4f565b506000602082860101526020601f19601f83011685010191505092915050565b60a081526000611e9e60a0830188611e45565b90508560208301528460408301528360608301528260808301529695505050505050565b600080600080600080600060a0888a031215611edd57600080fd5b873567ffffffffffffffff80821115611ef557600080fd5b611f018b838c01611d1e565b909950975060208a0135965060408a0135955060608a0135945060808a0135915080821115611f2f57600080fd5b50611f3c8a828b01611d1e565b989b979a50959850939692959293505050565b600080600060408486031215611f6457600080fd5b833567ffffffffffffffff811115611f7b57600080fd5b611f8786828701611d1e565b90945092505060208401358015158114611fa057600080fd5b809150509250925092565b634e487b7160e01b600052602160045260246000fd5b60068110611fdf57634e487b7160e01b600052602160045260246000fd5b9052565b600061010060018060a01b03808c168452808b166020850152508860408401528760608401528660808401528560a08401528060c084015261202781840186611e45565b91505061203760e0830184611fc1565b9998505050505050505050565b8183823760009101908152919050565b604081016120628285611fc1565b611dd26020830184611fc1565b81835281816020850137506000828201602090810191909152601f909101601f19169091010190565b6020815260006120ac60208301848661206f565b949350505050565b634e487b7160e01b600052601160045260246000fd5b808201808211156120dd576120dd6120b4565b92915050565b6040815260006120f760408301868861206f565b828103602084015261210a81858761206f565b979650505050505050565b600181811c9082168061212957607f821691505b60208210810361214957634e487b7160e01b600052602260045260246000fd5b50919050565b634e487b7160e01b600052604160045260246000fd5b601f8211156118d457600081815260208120601f850160051c8101602086101561218c5750805b601f850160051c820191505b818110156121ab57828155600101612198565b505050505050565b815167ffffffffffffffff8111156121cd576121cd61214f565b6121e1816121db8454612115565b84612165565b602080601f83116001811461221657600084156121fe5750858301515b600019600386901b1c1916600185901b1785556121ab565b600085815260208120601f198616915b8281101561224557888601518255948401946001909101908401612226565b50858210156122635787850151600019600388901b60f8161c191681555b5050505050600190811b01905550565b60408152600061228760408301858761206f565b9050826020830152949350505050565b818103818111156120dd576120dd6120b4565b6040815260006122be60408301848661206f565b8281036020840152600f81526e111a5cdc1d5d19481d1a5b595bdd5d608a1b6020820152604081019150509392505050565b60408152600061230460408301848661206f565b8281036020840152601381527221b0b731b2b63632b210313c9039b2b63632b960691b6020820152604081019150509392505050565b60408152600061234e60408301848661206f565b8281036020840152601581527414995cd95c9d99481c1c9a58d9481b9bdd081b595d605a1b6020820152604081019150509392505050565b60408152600061239a60408301858761206f565b90508215156020830152949350505050565b67ffffffffffffffff8311156123c4576123c461214f565b6123d8836123d28354612115565b83612165565b6000601f84116001811461240c57600085156123f45750838201355b600019600387901b1c1916600186901b178355611ce7565b600083815260209020601f19861690835b8281101561243d578685013582556020948501946001909201910161241d565b508682101561245a5760001960f88860031b161c19848701351681555b505060018560011b0183555050505050565b80820281158282048414176120dd576120dd6120b4565b6000826124a057634e487b7160e01b600052601260045260246000fd5b50049056fe9b779b17422d0df92223018b32b4d1fa46e071723d6817e2486d003becc55f00a2646970667358221220b688755915cbb4bb335371b915e251b57d2d320f56b00dce893559e02aad4e7964736f6c63430008140033","opcodes":"PUSH1 0xE0 PUSH1 0x40 MSTORE CALLVALUE DUP1 ISZERO PUSH3 0x11 JUMPI PUSH1 0x0 DUP1 REVERT JUMPDEST POP PUSH1 0x40 MLOAD PUSH3 0x2698 CODESIZE SUB DUP1 PUSH3 0x2698 DUP4 CODECOPY DUP2 ADD PUSH1 0x40 DUP2 SWAP1 MSTORE PUSH3 0x34 SWAP2 PUSH3 0x110 JUMP JUMPDEST PUSH1 0x1 PUSH32 0x9B779B17422D0DF92223018B32B4D1FA46E071723D6817E2486D003BECC55F00 SSTORE PUSH1 0x1 PUSH1 0x1 PUSH1 0xA0 SHL SUB DUP4 AND PUSH3 0x80 JUMPI PUSH1 0x40 MLOAD PUSH4 0xD92E233D PUSH1 0xE0 SHL DUP2 MSTORE PUSH1 0x4 ADD PUSH1 0x40 MLOAD DUP1 SWAP2 SUB SWAP1 REVERT JUMPDEST PUSH1 0x1 PUSH1 0x1 PUSH1 0xA0 SHL SUB DUP3 AND PUSH3 0xA8 JUMPI PUSH1 0x40 MLOAD PUSH4 0xD92E233D PUSH1 0xE0 SHL DUP2 MSTORE PUSH1 0x4 ADD PUSH1 0x40 MLOAD DUP1 SWAP2 SUB SWAP1 REVERT JUMPDEST PUSH2 0x3E8 DUP2 GT ISZERO PUSH3 0xDB JUMPI PUSH1 0x40 MLOAD PUSH4 0x37664AB PUSH1 0xE2 SHL DUP2 MSTORE PUSH1 0x4 DUP2 ADD DUP3 SWAP1 MSTORE PUSH2 0x3E8 PUSH1 0x24 DUP3 ADD MSTORE PUSH1 0x44 ADD PUSH1 0x40 MLOAD DUP1 SWAP2 SUB SWAP1 REVERT JUMPDEST PUSH1 0x1 PUSH1 0x1 PUSH1 0xA0 SHL SUB SWAP3 DUP4 AND PUSH1 0x80 MSTORE SWAP2 AND PUSH1 0xC0 MSTORE PUSH1 0xA0 MSTORE PUSH3 0x158 JUMP JUMPDEST PUSH1 0x1 PUSH1 0x1 PUSH1 0xA0 SHL SUB DUP2 AND DUP2 EQ PUSH3 0x10D JUMPI PUSH1 0x0 DUP1 REVERT JUMPDEST POP JUMP JUMPDEST PUSH1 0x0 DUP1 PUSH1 0x0 PUSH1 0x60 DUP5 DUP7 SUB SLT ISZERO PUSH3 0x126 JUMPI PUSH1 0x0 DUP1 REVERT JUMPDEST DUP4 MLOAD PUSH3 0x133 DUP2 PUSH3 0xF7 JUMP JUMPDEST PUSH1 0x20 DUP6 ADD MLOAD SWAP1 SWAP4 POP PUSH3 0x146 DUP2 PUSH3 0xF7 JUMP JUMPDEST DUP1 SWAP3 POP POP PUSH1 0x40 DUP5 ADD MLOAD SWAP1 POP SWAP3 POP SWAP3 POP SWAP3 JUMP JUMPDEST PUSH1 0x80 MLOAD PUSH1 0xA0 MLOAD PUSH1 0xC0 MLOAD PUSH2 0x24FB PUSH3 0x19D PUSH1 0x0 CODECOPY PUSH1 0x0 DUP2 DUP2 PUSH2 0x3F6 ADD MSTORE PUSH2 0x1BE2 ADD MSTORE PUSH1 0x0 DUP2 DUP2 PUSH2 0x184 ADD MSTORE PUSH2 0x1B99 ADD MSTORE PUSH1 0x0 DUP2 DUP2 PUSH2 0x442 ADD MSTORE PUSH2 0x1732 ADD MSTORE PUSH2 0x24FB PUSH1 0x0 RETURN INVALID PUSH1 0x80 PUSH1 0x40 MSTORE PUSH1 0x4 CALLDATASIZE LT PUSH2 0x14B JUMPI PUSH1 0x0 CALLDATALOAD PUSH1 0xE0 SHR DUP1 PUSH4 0xB60E7A3B GT PUSH2 0xB6 JUMPI DUP1 PUSH4 0xE995478E GT PUSH2 0x6F JUMPI DUP1 PUSH4 0xE995478E EQ PUSH2 0x382 JUMPI DUP1 PUSH4 0xEDD81849 EQ PUSH2 0x399 JUMPI DUP1 PUSH4 0xF585DC57 EQ PUSH2 0x3CD JUMPI DUP1 PUSH4 0xFA2AF9DA EQ PUSH2 0x3E4 JUMPI DUP1 PUSH4 0xFE25E00A EQ PUSH2 0x430 JUMPI DUP1 PUSH4 0xFF70A162 EQ PUSH2 0x464 JUMPI PUSH1 0x0 DUP1 REVERT JUMPDEST DUP1 PUSH4 0xB60E7A3B EQ PUSH2 0x2F6 JUMPI DUP1 PUSH4 0xCE2BA9BF EQ PUSH2 0x316 JUMPI DUP1 PUSH4 0xCE422626 EQ PUSH2 0x336 JUMPI DUP1 PUSH4 0xD55BE8C6 EQ PUSH2 0x356 JUMPI DUP1 PUSH4 0xD789A68D EQ PUSH2 0x36C JUMPI DUP1 PUSH4 0xDEBE3C1D EQ PUSH2 0x36C JUMPI PUSH1 0x0 DUP1 REVERT JUMPDEST DUP1 PUSH4 0x41E776AC GT PUSH2 0x108 JUMPI DUP1 PUSH4 0x41E776AC EQ PUSH2 0x24C JUMPI DUP1 PUSH4 0x45582AF5 EQ PUSH2 0x26C JUMPI DUP1 PUSH4 0x4C266C08 EQ PUSH2 0x28C JUMPI DUP1 PUSH4 0x7AEF951C EQ PUSH2 0x2A3 JUMPI DUP1 PUSH4 0x81B1102C EQ PUSH2 0x2B6 JUMPI DUP1 PUSH4 0xA4506460 EQ PUSH2 0x2D6 JUMPI PUSH1 0x0 DUP1 REVERT JUMPDEST DUP1 PUSH4 0x1D6AB05A EQ PUSH2 0x150 JUMPI DUP1 PUSH4 0x22DCD13E EQ PUSH2 0x172 JUMPI DUP1 PUSH4 0x26B387BB EQ PUSH2 0x1B9 JUMPI DUP1 PUSH4 0x386E52E0 EQ PUSH2 0x1E6 JUMPI DUP1 PUSH4 0x3CCFD60B EQ PUSH2 0x206 JUMPI DUP1 PUSH4 0x3E433491 EQ PUSH2 0x21B JUMPI JUMPDEST PUSH1 0x0 DUP1 REVERT JUMPDEST CALLVALUE DUP1 ISZERO PUSH2 0x15C JUMPI PUSH1 0x0 DUP1 REVERT JUMPDEST POP PUSH2 0x170 PUSH2 0x16B CALLDATASIZE PUSH1 0x4 PUSH2 0x1D67 JUMP JUMPDEST PUSH2 0x484 JUMP JUMPDEST STOP JUMPDEST CALLVALUE DUP1 ISZERO PUSH2 0x17E JUMPI PUSH1 0x0 DUP1 REVERT JUMPDEST POP PUSH2 0x1A6 PUSH32 0x0 DUP2 JUMP JUMPDEST PUSH1 0x40 MLOAD SWAP1 DUP2 MSTORE PUSH1 0x20 ADD JUMPDEST PUSH1 0x40 MLOAD DUP1 SWAP2 SUB SWAP1 RETURN JUMPDEST CALLVALUE DUP1 ISZERO PUSH2 0x1C5 JUMPI PUSH1 0x0 DUP1 REVERT JUMPDEST POP PUSH2 0x1A6 PUSH2 0x1D4 CALLDATASIZE PUSH1 0x4 PUSH2 0x1DA9 JUMP JUMPDEST PUSH1 0x1 PUSH1 0x20 MSTORE PUSH1 0x0 SWAP1 DUP2 MSTORE PUSH1 0x40 SWAP1 KECCAK256 SLOAD DUP2 JUMP JUMPDEST CALLVALUE DUP1 ISZERO PUSH2 0x1F2 JUMPI PUSH1 0x0 DUP1 REVERT JUMPDEST POP PUSH2 0x170 PUSH2 0x201 CALLDATASIZE PUSH1 0x4 PUSH2 0x1DD9 JUMP JUMPDEST PUSH2 0x621 JUMP JUMPDEST CALLVALUE DUP1 ISZERO PUSH2 0x212 JUMPI PUSH1 0x0 DUP1 REVERT JUMPDEST POP PUSH2 0x170 PUSH2 0x79D JUMP JUMPDEST CALLVALUE DUP1 ISZERO PUSH2 0x227 JUMPI PUSH1 0x0 DUP1 REVERT JUMPDEST POP PUSH2 0x23B PUSH2 0x236 CALLDATASIZE PUSH1 0x4 PUSH2 0x1D67 JUMP JUMPDEST PUSH2 0x89E JUMP JUMPDEST PUSH1 0x40 MLOAD PUSH2 0x1B0 SWAP6 SWAP5 SWAP4 SWAP3 SWAP2 SWAP1 PUSH2 0x1E8B JUMP JUMPDEST CALLVALUE DUP1 ISZERO PUSH2 0x258 JUMPI PUSH1 0x0 DUP1 REVERT JUMPDEST POP PUSH2 0x170 PUSH2 0x267 CALLDATASIZE PUSH1 0x4 PUSH2 0x1EC2 JUMP JUMPDEST PUSH2 0x982 JUMP JUMPDEST CALLVALUE DUP1 ISZERO PUSH2 0x278 JUMPI PUSH1 0x0 DUP1 REVERT JUMPDEST POP PUSH2 0x170 PUSH2 0x287 CALLDATASIZE PUSH1 0x4 PUSH2 0x1D67 JUMP JUMPDEST PUSH2 0xC19 JUMP JUMPDEST CALLVALUE DUP1 ISZERO PUSH2 0x298 JUMPI PUSH1 0x0 DUP1 REVERT JUMPDEST POP PUSH2 0x1A6 PUSH3 0x69780 DUP2 JUMP JUMPDEST PUSH2 0x170 PUSH2 0x2B1 CALLDATASIZE PUSH1 0x4 PUSH2 0x1D67 JUMP JUMPDEST PUSH2 0xD70 JUMP JUMPDEST CALLVALUE DUP1 ISZERO PUSH2 0x2C2 JUMPI PUSH1 0x0 DUP1 REVERT JUMPDEST POP PUSH2 0x170 PUSH2 0x2D1 CALLDATASIZE PUSH1 0x4 PUSH2 0x1D67 JUMP JUMPDEST PUSH2 0x1056 JUMP JUMPDEST CALLVALUE DUP1 ISZERO PUSH2 0x2E2 JUMPI PUSH1 0x0 DUP1 REVERT JUMPDEST POP PUSH2 0x170 PUSH2 0x2F1 CALLDATASIZE PUSH1 0x4 PUSH2 0x1D67 JUMP JUMPDEST PUSH2 0x11EF JUMP JUMPDEST CALLVALUE DUP1 ISZERO PUSH2 0x302 JUMPI PUSH1 0x0 DUP1 REVERT JUMPDEST POP PUSH2 0x170 PUSH2 0x311 CALLDATASIZE PUSH1 0x4 PUSH2 0x1D67 JUMP JUMPDEST PUSH2 0x132C JUMP JUMPDEST CALLVALUE DUP1 ISZERO PUSH2 0x322 JUMPI PUSH1 0x0 DUP1 REVERT JUMPDEST POP PUSH2 0x170 PUSH2 0x331 CALLDATASIZE PUSH1 0x4 PUSH2 0x1D67 JUMP JUMPDEST PUSH2 0x1481 JUMP JUMPDEST CALLVALUE DUP1 ISZERO PUSH2 0x342 JUMPI PUSH1 0x0 DUP1 REVERT JUMPDEST POP PUSH2 0x170 PUSH2 0x351 CALLDATASIZE PUSH1 0x4 PUSH2 0x1F4F JUMP JUMPDEST PUSH2 0x171F JUMP JUMPDEST CALLVALUE DUP1 ISZERO PUSH2 0x362 JUMPI PUSH1 0x0 DUP1 REVERT JUMPDEST POP PUSH2 0x1A6 PUSH2 0x3E8 DUP2 JUMP JUMPDEST CALLVALUE DUP1 ISZERO PUSH2 0x378 JUMPI PUSH1 0x0 DUP1 REVERT JUMPDEST POP PUSH2 0x1A6 PUSH2 0x258 DUP2 JUMP JUMPDEST CALLVALUE DUP1 ISZERO PUSH2 0x38E JUMPI PUSH1 0x0 DUP1 REVERT JUMPDEST POP PUSH2 0x1A6 PUSH3 0x127500 DUP2 JUMP JUMPDEST CALLVALUE DUP1 ISZERO PUSH2 0x3A5 JUMPI PUSH1 0x0 DUP1 REVERT JUMPDEST POP PUSH2 0x3B9 PUSH2 0x3B4 CALLDATASIZE PUSH1 0x4 PUSH2 0x1D67 JUMP JUMPDEST PUSH2 0x18D9 JUMP JUMPDEST PUSH1 0x40 MLOAD PUSH2 0x1B0 SWAP9 SWAP8 SWAP7 SWAP6 SWAP5 SWAP4 SWAP3 SWAP2 SWAP1 PUSH2 0x1FE3 JUMP JUMPDEST CALLVALUE DUP1 ISZERO PUSH2 0x3D9 JUMPI PUSH1 0x0 DUP1 REVERT JUMPDEST POP PUSH2 0x1A6 PUSH3 0x278D00 DUP2 JUMP JUMPDEST CALLVALUE DUP1 ISZERO PUSH2 0x3F0 JUMPI PUSH1 0x0 DUP1 REVERT JUMPDEST POP PUSH2 0x418 PUSH32 0x0 DUP2 JUMP JUMPDEST PUSH1 0x40 MLOAD PUSH1 0x1 PUSH1 0x1 PUSH1 0xA0 SHL SUB SWAP1 SWAP2 AND DUP2 MSTORE PUSH1 0x20 ADD PUSH2 0x1B0 JUMP JUMPDEST CALLVALUE DUP1 ISZERO PUSH2 0x43C JUMPI PUSH1 0x0 DUP1 REVERT JUMPDEST POP PUSH2 0x418 PUSH32 0x0 DUP2 JUMP JUMPDEST CALLVALUE DUP1 ISZERO PUSH2 0x470 JUMPI PUSH1 0x0 DUP1 REVERT JUMPDEST POP PUSH2 0x170 PUSH2 0x47F CALLDATASIZE PUSH1 0x4 PUSH2 0x1DD9 JUMP JUMPDEST PUSH2 0x19FA JUMP JUMPDEST PUSH2 0x48C PUSH2 0x1B6E JUMP JUMPDEST DUP2 DUP2 PUSH1 0x0 DUP3 DUP3 PUSH1 0x40 MLOAD PUSH2 0x4A0 SWAP3 SWAP2 SWAP1 PUSH2 0x2044 JUMP JUMPDEST SWAP1 DUP2 MSTORE PUSH1 0x40 MLOAD SWAP1 DUP2 SWAP1 SUB PUSH1 0x20 ADD SWAP1 KECCAK256 SLOAD CALLER PUSH1 0x1 PUSH1 0x1 PUSH1 0xA0 SHL SUB SWAP1 SWAP2 AND EQ PUSH2 0x4DA JUMPI PUSH1 0x40 MLOAD PUSH4 0x5EC82351 PUSH1 0xE0 SHL DUP2 MSTORE PUSH1 0x4 ADD PUSH1 0x40 MLOAD DUP1 SWAP2 SUB SWAP1 REVERT JUMPDEST DUP4 DUP4 PUSH1 0x2 PUSH1 0x0 DUP1 DUP5 DUP5 PUSH1 0x40 MLOAD PUSH2 0x4F1 SWAP3 SWAP2 SWAP1 PUSH2 0x2044 JUMP JUMPDEST SWAP1 DUP2 MSTORE PUSH1 0x40 MLOAD SWAP1 DUP2 SWAP1 SUB PUSH1 0x20 ADD SWAP1 KECCAK256 PUSH1 0xC ADD SLOAD PUSH1 0xFF AND SWAP1 POP DUP2 PUSH1 0x5 DUP2 GT ISZERO PUSH2 0x51B JUMPI PUSH2 0x51B PUSH2 0x1FAB JUMP JUMPDEST DUP2 PUSH1 0x5 DUP2 GT ISZERO PUSH2 0x52D JUMPI PUSH2 0x52D PUSH2 0x1FAB JUMP JUMPDEST EQ PUSH2 0x558 JUMPI DUP1 DUP3 PUSH1 0x40 MLOAD PUSH4 0x3BF2E2F9 PUSH1 0xE1 SHL DUP2 MSTORE PUSH1 0x4 ADD PUSH2 0x54F SWAP3 SWAP2 SWAP1 PUSH2 0x2054 JUMP JUMPDEST PUSH1 0x40 MLOAD DUP1 SWAP2 SUB SWAP1 REVERT JUMPDEST PUSH1 0x0 DUP1 DUP10 DUP10 PUSH1 0x40 MLOAD PUSH2 0x56B SWAP3 SWAP2 SWAP1 PUSH2 0x2044 JUMP JUMPDEST SWAP1 DUP2 MSTORE PUSH1 0x20 ADD PUSH1 0x40 MLOAD DUP1 SWAP2 SUB SWAP1 KECCAK256 SWAP1 POP DUP1 PUSH1 0xA ADD SLOAD TIMESTAMP GT PUSH2 0x59F JUMPI PUSH1 0x40 MLOAD PUSH4 0xE25501C3 PUSH1 0xE0 SHL DUP2 MSTORE PUSH1 0x4 ADD PUSH1 0x40 MLOAD DUP1 SWAP2 SUB SWAP1 REVERT JUMPDEST PUSH2 0x5A8 DUP2 PUSH2 0x1B8A JUMP JUMPDEST PUSH1 0xC DUP2 ADD DUP1 SLOAD PUSH1 0xFF NOT AND PUSH1 0x4 OR SWAP1 SSTORE DUP1 SLOAD PUSH1 0x40 MLOAD PUSH1 0x1 PUSH1 0x1 PUSH1 0xA0 SHL SUB SWAP1 SWAP2 AND SWAP1 PUSH32 0xB7D3AE1C4F73C35C6AD61517596E4178A4F90AC84634471F558DFA95432F4B92 SWAP1 PUSH2 0x5F7 SWAP1 DUP13 SWAP1 DUP13 SWAP1 PUSH2 0x2098 JUMP JUMPDEST PUSH1 0x40 MLOAD DUP1 SWAP2 SUB SWAP1 LOG2 POP POP POP POP POP POP POP PUSH2 0x61D PUSH1 0x1 PUSH1 0x0 DUP1 MLOAD PUSH1 0x20 PUSH2 0x24A6 DUP4 CODECOPY DUP2 MLOAD SWAP2 MSTORE SSTORE JUMP JUMPDEST POP POP JUMP JUMPDEST DUP4 DUP4 PUSH1 0x0 DUP3 DUP3 PUSH1 0x40 MLOAD PUSH2 0x635 SWAP3 SWAP2 SWAP1 PUSH2 0x2044 JUMP JUMPDEST SWAP1 DUP2 MSTORE PUSH1 0x40 MLOAD SWAP1 DUP2 SWAP1 SUB PUSH1 0x20 ADD SWAP1 KECCAK256 PUSH1 0x1 ADD SLOAD CALLER PUSH1 0x1 PUSH1 0x1 PUSH1 0xA0 SHL SUB SWAP1 SWAP2 AND EQ PUSH2 0x672 JUMPI PUSH1 0x40 MLOAD PUSH4 0x239700BF PUSH1 0xE1 SHL DUP2 MSTORE PUSH1 0x4 ADD PUSH1 0x40 MLOAD DUP1 SWAP2 SUB SWAP1 REVERT JUMPDEST DUP6 DUP6 PUSH1 0x2 PUSH1 0x0 DUP1 DUP5 DUP5 PUSH1 0x40 MLOAD PUSH2 0x689 SWAP3 SWAP2 SWAP1 PUSH2 0x2044 JUMP JUMPDEST SWAP1 DUP2 MSTORE PUSH1 0x40 MLOAD SWAP1 DUP2 SWAP1 SUB PUSH1 0x20 ADD SWAP1 KECCAK256 PUSH1 0xC ADD SLOAD PUSH1 0xFF AND SWAP1 POP DUP2 PUSH1 0x5 DUP2 GT ISZERO PUSH2 0x6B3 JUMPI PUSH2 0x6B3 PUSH2 0x1FAB JUMP JUMPDEST DUP2 PUSH1 0x5 DUP2 GT ISZERO PUSH2 0x6C5 JUMPI PUSH2 0x6C5 PUSH2 0x1FAB JUMP JUMPDEST EQ PUSH2 0x6E7 JUMPI DUP1 DUP3 PUSH1 0x40 MLOAD PUSH4 0x3BF2E2F9 PUSH1 0xE1 SHL DUP2 MSTORE PUSH1 0x4 ADD PUSH2 0x54F SWAP3 SWAP2 SWAP1 PUSH2 0x2054 JUMP JUMPDEST PUSH1 0x0 DUP1 DUP12 DUP12 PUSH1 0x40 MLOAD PUSH2 0x6FA SWAP3 SWAP2 SWAP1 PUSH2 0x2044 JUMP JUMPDEST SWAP1 DUP2 MSTORE PUSH1 0x20 ADD PUSH1 0x40 MLOAD DUP1 SWAP2 SUB SWAP1 KECCAK256 SWAP1 POP DUP1 PUSH1 0xA ADD SLOAD TIMESTAMP GT ISZERO PUSH2 0x72F JUMPI PUSH1 0x40 MLOAD PUSH4 0x58AFEC43 PUSH1 0xE1 SHL DUP2 MSTORE PUSH1 0x4 ADD PUSH1 0x40 MLOAD DUP1 SWAP2 SUB SWAP1 REVERT JUMPDEST PUSH2 0x73C PUSH3 0x278D00 TIMESTAMP PUSH2 0x20CA JUMP JUMPDEST PUSH1 0xB DUP3 ADD SSTORE PUSH1 0xC DUP2 ADD DUP1 SLOAD PUSH1 0xFF NOT AND PUSH1 0x3 OR SWAP1 SSTORE PUSH1 0x40 MLOAD CALLER SWAP1 PUSH32 0x8FA54471E8AA7B918984B3ECB2FA16FCF4C3994D80F5102C193DE432C7F0B484 SWAP1 PUSH2 0x788 SWAP1 DUP15 SWAP1 DUP15 SWAP1 DUP15 SWAP1 DUP15 SWAP1 PUSH2 0x20E3 JUMP JUMPDEST PUSH1 0x40 MLOAD DUP1 SWAP2 SUB SWAP1 LOG2 POP POP POP POP POP POP POP POP POP POP POP JUMP JUMPDEST PUSH2 0x7A5 PUSH2 0x1B6E JUMP JUMPDEST CALLER PUSH1 0x0 SWAP1 DUP2 MSTORE PUSH1 0x1 PUSH1 0x20 MSTORE PUSH1 0x40 DUP2 KECCAK256 SLOAD SWAP1 DUP2 SWAP1 SUB PUSH2 0x7D6 JUMPI PUSH1 0x40 MLOAD PUSH4 0x67E3990D PUSH1 0xE0 SHL DUP2 MSTORE PUSH1 0x4 ADD PUSH1 0x40 MLOAD DUP1 SWAP2 SUB SWAP1 REVERT JUMPDEST CALLER PUSH1 0x0 DUP2 DUP2 MSTORE PUSH1 0x1 PUSH1 0x20 MSTORE PUSH1 0x40 DUP1 DUP3 KECCAK256 DUP3 SWAP1 SSTORE MLOAD SWAP1 SWAP2 SWAP1 DUP4 SWAP1 DUP4 DUP2 DUP2 DUP2 DUP6 DUP8 GAS CALL SWAP3 POP POP POP RETURNDATASIZE DUP1 PUSH1 0x0 DUP2 EQ PUSH2 0x827 JUMPI PUSH1 0x40 MLOAD SWAP2 POP PUSH1 0x1F NOT PUSH1 0x3F RETURNDATASIZE ADD AND DUP3 ADD PUSH1 0x40 MSTORE RETURNDATASIZE DUP3 MSTORE RETURNDATASIZE PUSH1 0x0 PUSH1 0x20 DUP5 ADD RETURNDATACOPY PUSH2 0x82C JUMP JUMPDEST PUSH1 0x60 SWAP2 POP JUMPDEST POP POP SWAP1 POP DUP1 PUSH2 0x84E JUMPI PUSH1 0x40 MLOAD PUSH4 0x12171D83 PUSH1 0xE3 SHL DUP2 MSTORE PUSH1 0x4 ADD PUSH1 0x40 MLOAD DUP1 SWAP2 SUB SWAP1 REVERT JUMPDEST PUSH1 0x40 MLOAD DUP3 DUP2 MSTORE CALLER SWAP1 PUSH32 0x7084F5476618D8E60B11EF0D7D3F06914655ADB8793E28FF7F018D4C76D505D5 SWAP1 PUSH1 0x20 ADD PUSH1 0x40 MLOAD DUP1 SWAP2 SUB SWAP1 LOG2 POP POP PUSH2 0x89C PUSH1 0x1 PUSH1 0x0 DUP1 MLOAD PUSH1 0x20 PUSH2 0x24A6 DUP4 CODECOPY DUP2 MLOAD SWAP2 MSTORE SSTORE JUMP JUMPDEST JUMP JUMPDEST PUSH1 0x60 PUSH1 0x0 DUP1 PUSH1 0x0 DUP1 PUSH1 0x0 DUP1 DUP9 DUP9 PUSH1 0x40 MLOAD PUSH2 0x8B9 SWAP3 SWAP2 SWAP1 PUSH2 0x2044 JUMP JUMPDEST SWAP1 DUP2 MSTORE PUSH1 0x20 ADD PUSH1 0x40 MLOAD DUP1 SWAP2 SUB SWAP1 KECCAK256 SWAP1 POP DUP1 PUSH1 0x8 ADD DUP2 PUSH1 0x9 ADD SLOAD DUP3 PUSH1 0xA ADD SLOAD DUP4 PUSH1 0xB ADD SLOAD DUP5 PUSH1 0x5 ADD SLOAD DUP5 DUP1 SLOAD PUSH2 0x8ED SWAP1 PUSH2 0x2115 JUMP JUMPDEST DUP1 PUSH1 0x1F ADD PUSH1 0x20 DUP1 SWAP2 DIV MUL PUSH1 0x20 ADD PUSH1 0x40 MLOAD SWAP1 DUP2 ADD PUSH1 0x40 MSTORE DUP1 SWAP3 SWAP2 SWAP1 DUP2 DUP2 MSTORE PUSH1 0x20 ADD DUP3 DUP1 SLOAD PUSH2 0x919 SWAP1 PUSH2 0x2115 JUMP JUMPDEST DUP1 ISZERO PUSH2 0x966 JUMPI DUP1 PUSH1 0x1F LT PUSH2 0x93B JUMPI PUSH2 0x100 DUP1 DUP4 SLOAD DIV MUL DUP4 MSTORE SWAP2 PUSH1 0x20 ADD SWAP2 PUSH2 0x966 JUMP JUMPDEST DUP3 ADD SWAP2 SWAP1 PUSH1 0x0 MSTORE PUSH1 0x20 PUSH1 0x0 KECCAK256 SWAP1 JUMPDEST DUP2 SLOAD DUP2 MSTORE SWAP1 PUSH1 0x1 ADD SWAP1 PUSH1 0x20 ADD DUP1 DUP4 GT PUSH2 0x949 JUMPI DUP3 SWAP1 SUB PUSH1 0x1F AND DUP3 ADD SWAP2 JUMPDEST POP POP POP POP POP SWAP5 POP SWAP6 POP SWAP6 POP SWAP6 POP SWAP6 POP SWAP6 POP POP SWAP3 SWAP6 POP SWAP3 SWAP6 SWAP1 SWAP4 POP JUMP JUMPDEST PUSH1 0x0 PUSH1 0x1 PUSH1 0x1 PUSH1 0xA0 SHL SUB AND PUSH1 0x0 DUP9 DUP9 PUSH1 0x40 MLOAD PUSH2 0x99F SWAP3 SWAP2 SWAP1 PUSH2 0x2044 JUMP JUMPDEST SWAP1 DUP2 MSTORE PUSH1 0x40 MLOAD SWAP1 DUP2 SWAP1 SUB PUSH1 0x20 ADD SWAP1 KECCAK256 SLOAD PUSH1 0x1 PUSH1 0x1 PUSH1 0xA0 SHL SUB AND EQ PUSH2 0x9DA JUMPI DUP7 DUP7 PUSH1 0x40 MLOAD PUSH4 0xC377F727 PUSH1 0xE0 SHL DUP2 MSTORE PUSH1 0x4 ADD PUSH2 0x54F SWAP3 SWAP2 SWAP1 PUSH2 0x2098 JUMP JUMPDEST DUP5 PUSH1 0x0 SUB PUSH2 0x9FB JUMPI PUSH1 0x40 MLOAD PUSH4 0x76166401 PUSH1 0xE0 SHL DUP2 MSTORE PUSH1 0x4 ADD PUSH1 0x40 MLOAD DUP1 SWAP2 SUB SWAP1 REVERT JUMPDEST DUP3 PUSH1 0x0 SUB PUSH2 0xA1C JUMPI PUSH1 0x40 MLOAD PUSH4 0x51FD6A95 PUSH1 0xE1 SHL DUP2 MSTORE PUSH1 0x4 ADD PUSH1 0x40 MLOAD DUP1 SWAP2 SUB SWAP1 REVERT JUMPDEST PUSH1 0x0 PUSH2 0xA28 DUP7 TIMESTAMP PUSH2 0x20CA JUMP JUMPDEST SWAP1 POP PUSH1 0x40 MLOAD DUP1 PUSH2 0x1A0 ADD PUSH1 0x40 MSTORE DUP1 CALLER PUSH1 0x1 PUSH1 0x1 PUSH1 0xA0 SHL SUB AND DUP2 MSTORE PUSH1 0x20 ADD PUSH1 0x0 PUSH1 0x1 PUSH1 0x1 PUSH1 0xA0 SHL SUB AND DUP2 MSTORE PUSH1 0x20 ADD PUSH1 0x0 DUP2 MSTORE PUSH1 0x20 ADD TIMESTAMP DUP2 MSTORE PUSH1 0x20 ADD DUP3 DUP2 MSTORE PUSH1 0x20 ADD DUP7 DUP2 MSTORE PUSH1 0x20 ADD DUP6 DUP2 MSTORE PUSH1 0x20 ADD DUP5 DUP5 DUP1 DUP1 PUSH1 0x1F ADD PUSH1 0x20 DUP1 SWAP2 DIV MUL PUSH1 0x20 ADD PUSH1 0x40 MLOAD SWAP1 DUP2 ADD PUSH1 0x40 MSTORE DUP1 SWAP4 SWAP3 SWAP2 SWAP1 DUP2 DUP2 MSTORE PUSH1 0x20 ADD DUP4 DUP4 DUP1 DUP3 DUP5 CALLDATACOPY PUSH1 0x0 SWAP3 ADD DUP3 SWAP1 MSTORE POP SWAP4 DUP6 MSTORE POP POP PUSH1 0x40 DUP1 MLOAD PUSH1 0x20 DUP1 DUP3 ADD DUP4 MSTORE DUP5 DUP3 MSTORE DUP6 ADD MSTORE DUP1 DUP5 ADD DUP4 SWAP1 MSTORE PUSH1 0x60 DUP5 ADD DUP4 SWAP1 MSTORE PUSH1 0x80 DUP5 ADD DUP4 SWAP1 MSTORE PUSH1 0xA0 SWAP1 SWAP4 ADD DUP3 SWAP1 MSTORE POP SWAP1 MLOAD PUSH2 0xAE8 SWAP1 DUP12 SWAP1 DUP12 SWAP1 PUSH2 0x2044 JUMP JUMPDEST SWAP1 DUP2 MSTORE PUSH1 0x40 DUP1 MLOAD PUSH1 0x20 SWAP3 DUP2 SWAP1 SUB DUP4 ADD SWAP1 KECCAK256 DUP4 MLOAD DUP2 SLOAD PUSH1 0x1 PUSH1 0x1 PUSH1 0xA0 SHL SUB NOT SWAP1 DUP2 AND PUSH1 0x1 PUSH1 0x1 PUSH1 0xA0 SHL SUB SWAP3 DUP4 AND OR DUP4 SSTORE SWAP4 DUP6 ADD MLOAD PUSH1 0x1 DUP4 ADD DUP1 SLOAD SWAP1 SWAP6 AND SWAP2 AND OR SWAP1 SWAP3 SSTORE DUP3 ADD MLOAD PUSH1 0x2 DUP3 ADD SSTORE PUSH1 0x60 DUP3 ADD MLOAD PUSH1 0x3 DUP3 ADD SSTORE PUSH1 0x80 DUP3 ADD MLOAD PUSH1 0x4 DUP3 ADD SSTORE PUSH1 0xA0 DUP3 ADD MLOAD PUSH1 0x5 DUP3 ADD SSTORE PUSH1 0xC0 DUP3 ADD MLOAD PUSH1 0x6 DUP3 ADD SSTORE PUSH1 0xE0 DUP3 ADD MLOAD PUSH1 0x7 DUP3 ADD SWAP1 PUSH2 0xB6E SWAP1 DUP3 PUSH2 0x21B3 JUMP JUMPDEST POP PUSH2 0x100 DUP3 ADD MLOAD PUSH1 0x8 DUP3 ADD SWAP1 PUSH2 0xB84 SWAP1 DUP3 PUSH2 0x21B3 JUMP JUMPDEST POP PUSH2 0x120 DUP3 ADD MLOAD PUSH1 0x9 DUP3 ADD SSTORE PUSH2 0x140 DUP3 ADD MLOAD PUSH1 0xA DUP3 ADD SSTORE PUSH2 0x160 DUP3 ADD MLOAD PUSH1 0xB DUP3 ADD SSTORE PUSH2 0x180 DUP3 ADD MLOAD PUSH1 0xC DUP3 ADD DUP1 SLOAD PUSH1 0xFF NOT AND PUSH1 0x1 DUP4 PUSH1 0x5 DUP2 GT ISZERO PUSH2 0xBCA JUMPI PUSH2 0xBCA PUSH2 0x1FAB JUMP JUMPDEST MUL OR SWAP1 SSTORE POP POP PUSH1 0x40 MLOAD CALLER SWAP2 POP PUSH32 0x3ACA71923D7B755212ED2882F8B3E59833C2C5D38BEB9EBA440D82B3D92C4E06 SWAP1 PUSH2 0xC07 SWAP1 DUP12 SWAP1 DUP12 SWAP1 DUP7 SWAP1 PUSH2 0x2273 JUMP JUMPDEST PUSH1 0x40 MLOAD DUP1 SWAP2 SUB SWAP1 LOG2 POP POP POP POP POP POP POP POP JUMP JUMPDEST DUP2 DUP2 PUSH1 0x1 PUSH1 0x0 DUP1 DUP5 DUP5 PUSH1 0x40 MLOAD PUSH2 0xC30 SWAP3 SWAP2 SWAP1 PUSH2 0x2044 JUMP JUMPDEST SWAP1 DUP2 MSTORE PUSH1 0x40 MLOAD SWAP1 DUP2 SWAP1 SUB PUSH1 0x20 ADD SWAP1 KECCAK256 PUSH1 0xC ADD SLOAD PUSH1 0xFF AND SWAP1 POP DUP2 PUSH1 0x5 DUP2 GT ISZERO PUSH2 0xC5A JUMPI PUSH2 0xC5A PUSH2 0x1FAB JUMP JUMPDEST DUP2 PUSH1 0x5 DUP2 GT ISZERO PUSH2 0xC6C JUMPI PUSH2 0xC6C PUSH2 0x1FAB JUMP JUMPDEST EQ PUSH2 0xC8E JUMPI DUP1 DUP3 PUSH1 0x40 MLOAD PUSH4 0x3BF2E2F9 PUSH1 0xE1 SHL DUP2 MSTORE PUSH1 0x4 ADD PUSH2 0x54F SWAP3 SWAP2 SWAP1 PUSH2 0x2054 JUMP JUMPDEST PUSH1 0x0 DUP1 DUP8 DUP8 PUSH1 0x40 MLOAD PUSH2 0xCA1 SWAP3 SWAP2 SWAP1 PUSH2 0x2044 JUMP JUMPDEST SWAP1 DUP2 MSTORE PUSH1 0x20 ADD PUSH1 0x40 MLOAD DUP1 SWAP2 SUB SWAP1 KECCAK256 SWAP1 POP DUP1 PUSH1 0x9 ADD SLOAD TIMESTAMP GT PUSH2 0xCD5 JUMPI PUSH1 0x40 MLOAD PUSH4 0xECD8EA89 PUSH1 0xE0 SHL DUP2 MSTORE PUSH1 0x4 ADD PUSH1 0x40 MLOAD DUP1 SWAP2 SUB SWAP1 REVERT JUMPDEST PUSH1 0x2 DUP2 ADD SLOAD PUSH1 0x1 DUP1 DUP4 ADD SLOAD PUSH1 0x1 PUSH1 0x1 PUSH1 0xA0 SHL SUB AND PUSH1 0x0 SWAP1 DUP2 MSTORE PUSH1 0x20 SWAP2 SWAP1 SWAP2 MSTORE PUSH1 0x40 DUP2 KECCAK256 DUP1 SLOAD SWAP1 SWAP2 SWAP1 PUSH2 0xD08 SWAP1 DUP5 SWAP1 PUSH2 0x20CA JUMP JUMPDEST SWAP1 SWAP2 SSTORE POP POP PUSH1 0xC DUP2 ADD DUP1 SLOAD PUSH1 0xFF NOT AND PUSH1 0x5 OR SWAP1 SSTORE PUSH1 0x1 DUP2 ADD SLOAD PUSH1 0x40 MLOAD PUSH1 0x1 PUSH1 0x1 PUSH1 0xA0 SHL SUB SWAP1 SWAP2 AND SWAP1 PUSH32 0x5392961094E9B4C72F0CFA147262277E8731DB894BC001C8FEEFCF4F935971EF SWAP1 PUSH2 0xD5F SWAP1 DUP11 SWAP1 DUP11 SWAP1 PUSH2 0x2098 JUMP JUMPDEST PUSH1 0x40 MLOAD DUP1 SWAP2 SUB SWAP1 LOG2 POP POP POP POP POP POP POP JUMP JUMPDEST PUSH2 0xD78 PUSH2 0x1B6E JUMP JUMPDEST DUP2 DUP2 PUSH1 0x0 PUSH1 0x1 PUSH1 0x1 PUSH1 0xA0 SHL SUB AND PUSH1 0x0 DUP4 DUP4 PUSH1 0x40 MLOAD PUSH2 0xD97 SWAP3 SWAP2 SWAP1 PUSH2 0x2044 JUMP JUMPDEST SWAP1 DUP2 MSTORE PUSH1 0x40 MLOAD SWAP1 DUP2 SWAP1 SUB PUSH1 0x20 ADD SWAP1 KECCAK256 SLOAD PUSH1 0x1 PUSH1 0x1 PUSH1 0xA0 SHL SUB AND SUB PUSH2 0xDD2 JUMPI DUP2 DUP2 PUSH1 0x40 MLOAD PUSH4 0x8A7E4CD PUSH1 0xE2 SHL DUP2 MSTORE PUSH1 0x4 ADD PUSH2 0x54F SWAP3 SWAP2 SWAP1 PUSH2 0x2098 JUMP JUMPDEST DUP4 DUP4 PUSH1 0x0 DUP1 PUSH1 0x0 DUP5 DUP5 PUSH1 0x40 MLOAD PUSH2 0xDE9 SWAP3 SWAP2 SWAP1 PUSH2 0x2044 JUMP JUMPDEST SWAP1 DUP2 MSTORE PUSH1 0x40 MLOAD SWAP1 DUP2 SWAP1 SUB PUSH1 0x20 ADD SWAP1 KECCAK256 PUSH1 0xC ADD SLOAD PUSH1 0xFF AND SWAP1 POP DUP2 PUSH1 0x5 DUP2 GT ISZERO PUSH2 0xE13 JUMPI PUSH2 0xE13 PUSH2 0x1FAB JUMP JUMPDEST DUP2 PUSH1 0x5 DUP2 GT ISZERO PUSH2 0xE25 JUMPI PUSH2 0xE25 PUSH2 0x1FAB JUMP JUMPDEST EQ PUSH2 0xE47 JUMPI DUP1 DUP3 PUSH1 0x40 MLOAD PUSH4 0x3BF2E2F9 PUSH1 0xE1 SHL DUP2 MSTORE PUSH1 0x4 ADD PUSH2 0x54F SWAP3 SWAP2 SWAP1 PUSH2 0x2054 JUMP JUMPDEST PUSH1 0x0 DUP1 DUP10 DUP10 PUSH1 0x40 MLOAD PUSH2 0xE5A SWAP3 SWAP2 SWAP1 PUSH2 0x2044 JUMP JUMPDEST SWAP1 DUP2 MSTORE PUSH1 0x20 ADD PUSH1 0x40 MLOAD DUP1 SWAP2 SUB SWAP1 KECCAK256 SWAP1 POP DUP1 PUSH1 0x4 ADD SLOAD TIMESTAMP LT PUSH2 0xE8E JUMPI PUSH1 0x40 MLOAD PUSH4 0x9EAFE1B7 PUSH1 0xE0 SHL DUP2 MSTORE PUSH1 0x4 ADD PUSH1 0x40 MLOAD DUP1 SWAP2 SUB SWAP1 REVERT JUMPDEST DUP1 SLOAD PUSH1 0x1 PUSH1 0x1 PUSH1 0xA0 SHL SUB AND CALLER SUB PUSH2 0xEB8 JUMPI PUSH1 0x40 MLOAD PUSH4 0xEF025889 PUSH1 0xE0 SHL DUP2 MSTORE PUSH1 0x4 ADD PUSH1 0x40 MLOAD DUP1 SWAP2 SUB SWAP1 REVERT JUMPDEST PUSH1 0x1 DUP2 ADD SLOAD PUSH1 0x1 PUSH1 0x1 PUSH1 0xA0 SHL SUB AND PUSH2 0xF03 JUMPI DUP1 PUSH1 0x6 ADD SLOAD CALLVALUE LT ISZERO PUSH2 0xEFE JUMPI PUSH1 0x6 DUP2 ADD SLOAD PUSH1 0x40 MLOAD PUSH4 0x3DFA951 PUSH1 0xE6 SHL DUP2 MSTORE CALLVALUE PUSH1 0x4 DUP3 ADD MSTORE PUSH1 0x24 DUP2 ADD SWAP2 SWAP1 SWAP2 MSTORE PUSH1 0x44 ADD PUSH2 0x54F JUMP JUMPDEST PUSH2 0xF47 JUMP JUMPDEST PUSH1 0x0 DUP2 PUSH1 0x6 ADD SLOAD DUP3 PUSH1 0x2 ADD SLOAD PUSH2 0xF19 SWAP2 SWAP1 PUSH2 0x20CA JUMP JUMPDEST SWAP1 POP DUP1 CALLVALUE LT ISZERO PUSH2 0xF45 JUMPI PUSH1 0x40 MLOAD PUSH4 0x175E0023 PUSH1 0xE1 SHL DUP2 MSTORE CALLVALUE PUSH1 0x4 DUP3 ADD MSTORE PUSH1 0x24 DUP2 ADD DUP3 SWAP1 MSTORE PUSH1 0x44 ADD PUSH2 0x54F JUMP JUMPDEST POP JUMPDEST PUSH1 0x2 DUP2 ADD SLOAD ISZERO PUSH2 0xF8A JUMPI PUSH1 0x2 DUP2 ADD SLOAD PUSH1 0x1 DUP1 DUP4 ADD SLOAD PUSH1 0x1 PUSH1 0x1 PUSH1 0xA0 SHL SUB AND PUSH1 0x0 SWAP1 DUP2 MSTORE PUSH1 0x20 SWAP2 SWAP1 SWAP2 MSTORE PUSH1 0x40 DUP2 KECCAK256 DUP1 SLOAD SWAP1 SWAP2 SWAP1 PUSH2 0xF84 SWAP1 DUP5 SWAP1 PUSH2 0x20CA JUMP JUMPDEST SWAP1 SWAP2 SSTORE POP POP JUMPDEST PUSH1 0x1 DUP2 ADD DUP1 SLOAD PUSH1 0x1 PUSH1 0x1 PUSH1 0xA0 SHL SUB NOT AND CALLER OR SWAP1 SSTORE CALLVALUE PUSH1 0x2 DUP3 ADD SSTORE PUSH1 0x4 DUP2 ADD SLOAD PUSH2 0x258 SWAP1 PUSH2 0xFB8 SWAP1 TIMESTAMP SWAP1 PUSH2 0x2297 JUMP JUMPDEST LT ISZERO PUSH2 0x1019 JUMPI PUSH2 0x258 DUP2 PUSH1 0x4 ADD PUSH1 0x0 DUP3 DUP3 SLOAD PUSH2 0xFD4 SWAP2 SWAP1 PUSH2 0x20CA JUMP JUMPDEST SWAP1 SWAP2 SSTORE POP POP PUSH1 0x4 DUP2 ADD SLOAD PUSH1 0x40 MLOAD PUSH32 0xC7C70C9E2FFE271DC12591A5043C542DCA07A7703C879C649965BD66B8FDC37C SWAP2 PUSH2 0x1010 SWAP2 DUP13 SWAP2 DUP13 SWAP2 PUSH2 0x2273 JUMP JUMPDEST PUSH1 0x40 MLOAD DUP1 SWAP2 SUB SWAP1 LOG1 JUMPDEST CALLER PUSH1 0x1 PUSH1 0x1 PUSH1 0xA0 SHL SUB AND PUSH32 0x7A1EF295A7B3EAD528A3D5DC5108DF6FBE47739A34AA589A11433B98CE53C60E DUP11 DUP11 CALLVALUE PUSH1 0x40 MLOAD PUSH2 0x5F7 SWAP4 SWAP3 SWAP2 SWAP1 PUSH2 0x2273 JUMP JUMPDEST DUP2 DUP2 PUSH1 0x0 DUP3 DUP3 PUSH1 0x40 MLOAD PUSH2 0x106A SWAP3 SWAP2 SWAP1 PUSH2 0x2044 JUMP JUMPDEST SWAP1 DUP2 MSTORE PUSH1 0x40 MLOAD SWAP1 DUP2 SWAP1 SUB PUSH1 0x20 ADD SWAP1 KECCAK256 PUSH1 0x1 ADD SLOAD CALLER PUSH1 0x1 PUSH1 0x1 PUSH1 0xA0 SHL SUB SWAP1 SWAP2 AND EQ PUSH2 0x10A7 JUMPI PUSH1 0x40 MLOAD PUSH4 0x239700BF PUSH1 0xE1 SHL DUP2 MSTORE PUSH1 0x4 ADD PUSH1 0x40 MLOAD DUP1 SWAP2 SUB SWAP1 REVERT JUMPDEST DUP4 DUP4 PUSH1 0x3 PUSH1 0x0 DUP1 DUP5 DUP5 PUSH1 0x40 MLOAD PUSH2 0x10BE SWAP3 SWAP2 SWAP1 PUSH2 0x2044 JUMP JUMPDEST SWAP1 DUP2 MSTORE PUSH1 0x40 MLOAD SWAP1 DUP2 SWAP1 SUB PUSH1 0x20 ADD SWAP1 KECCAK256 PUSH1 0xC ADD SLOAD PUSH1 0xFF AND SWAP1 POP DUP2 PUSH1 0x5 DUP2 GT ISZERO PUSH2 0x10E8 JUMPI PUSH2 0x10E8 PUSH2 0x1FAB JUMP JUMPDEST DUP2 PUSH1 0x5 DUP2 GT ISZERO PUSH2 0x10FA JUMPI PUSH2 0x10FA PUSH2 0x1FAB JUMP JUMPDEST EQ PUSH2 0x111C JUMPI DUP1 DUP3 PUSH1 0x40 MLOAD PUSH4 0x3BF2E2F9 PUSH1 0xE1 SHL DUP2 MSTORE PUSH1 0x4 ADD PUSH2 0x54F SWAP3 SWAP2 SWAP1 PUSH2 0x2054 JUMP JUMPDEST PUSH1 0x0 DUP1 DUP10 DUP10 PUSH1 0x40 MLOAD PUSH2 0x112F SWAP3 SWAP2 SWAP1 PUSH2 0x2044 JUMP JUMPDEST SWAP1 DUP2 MSTORE PUSH1 0x20 ADD PUSH1 0x40 MLOAD DUP1 SWAP2 SUB SWAP1 KECCAK256 SWAP1 POP DUP1 PUSH1 0xB ADD SLOAD TIMESTAMP GT PUSH2 0x1163 JUMPI PUSH1 0x40 MLOAD PUSH4 0xB35E2139 PUSH1 0xE0 SHL DUP2 MSTORE PUSH1 0x4 ADD PUSH1 0x40 MLOAD DUP1 SWAP2 SUB SWAP1 REVERT JUMPDEST PUSH1 0x2 DUP2 ADD SLOAD PUSH1 0x1 DUP1 DUP4 ADD SLOAD PUSH1 0x1 PUSH1 0x1 PUSH1 0xA0 SHL SUB AND PUSH1 0x0 SWAP1 DUP2 MSTORE PUSH1 0x20 SWAP2 SWAP1 SWAP2 MSTORE PUSH1 0x40 DUP2 KECCAK256 DUP1 SLOAD SWAP1 SWAP2 SWAP1 PUSH2 0x1196 SWAP1 DUP5 SWAP1 PUSH2 0x20CA JUMP JUMPDEST SWAP1 SWAP2 SSTORE POP POP PUSH1 0xC DUP2 ADD DUP1 SLOAD PUSH1 0xFF NOT AND PUSH1 0x5 OR SWAP1 SSTORE PUSH1 0x40 MLOAD PUSH32 0xD5989FE57D188D07680988D847D1BC67C41C982DA0A5CBAD9F1678906266E412 SWAP1 PUSH2 0x11DC SWAP1 DUP12 SWAP1 DUP12 SWAP1 PUSH2 0x22AA JUMP JUMPDEST PUSH1 0x40 MLOAD DUP1 SWAP2 SUB SWAP1 LOG1 POP POP POP POP POP POP POP POP POP JUMP JUMPDEST PUSH2 0x11F7 PUSH2 0x1B6E JUMP JUMPDEST DUP2 DUP2 PUSH1 0x0 DUP3 DUP3 PUSH1 0x40 MLOAD PUSH2 0x120B SWAP3 SWAP2 SWAP1 PUSH2 0x2044 JUMP JUMPDEST SWAP1 DUP2 MSTORE PUSH1 0x40 MLOAD SWAP1 DUP2 SWAP1 SUB PUSH1 0x20 ADD SWAP1 KECCAK256 PUSH1 0x1 ADD SLOAD CALLER PUSH1 0x1 PUSH1 0x1 PUSH1 0xA0 SHL SUB SWAP1 SWAP2 AND EQ PUSH2 0x1248 JUMPI PUSH1 0x40 MLOAD PUSH4 0x239700BF PUSH1 0xE1 SHL DUP2 MSTORE PUSH1 0x4 ADD PUSH1 0x40 MLOAD DUP1 SWAP2 SUB SWAP1 REVERT JUMPDEST DUP4 DUP4 PUSH1 0x2 PUSH1 0x0 DUP1 DUP5 DUP5 PUSH1 0x40 MLOAD PUSH2 0x125F SWAP3 SWAP2 SWAP1 PUSH2 0x2044 JUMP JUMPDEST SWAP1 DUP2 MSTORE PUSH1 0x40 MLOAD SWAP1 DUP2 SWAP1 SUB PUSH1 0x20 ADD SWAP1 KECCAK256 PUSH1 0xC ADD SLOAD PUSH1 0xFF AND SWAP1 POP DUP2 PUSH1 0x5 DUP2 GT ISZERO PUSH2 0x1289 JUMPI PUSH2 0x1289 PUSH2 0x1FAB JUMP JUMPDEST DUP2 PUSH1 0x5 DUP2 GT ISZERO PUSH2 0x129B JUMPI PUSH2 0x129B PUSH2 0x1FAB JUMP JUMPDEST EQ PUSH2 0x12BD JUMPI DUP1 DUP3 PUSH1 0x40 MLOAD PUSH4 0x3BF2E2F9 PUSH1 0xE1 SHL DUP2 MSTORE PUSH1 0x4 ADD PUSH2 0x54F SWAP3 SWAP2 SWAP1 PUSH2 0x2054 JUMP JUMPDEST PUSH1 0x0 DUP1 DUP10 DUP10 PUSH1 0x40 MLOAD PUSH2 0x12D0 SWAP3 SWAP2 SWAP1 PUSH2 0x2044 JUMP JUMPDEST SWAP1 DUP2 MSTORE PUSH1 0x20 ADD PUSH1 0x40 MLOAD DUP1 SWAP2 SUB SWAP1 KECCAK256 SWAP1 POP PUSH2 0x12E9 DUP2 PUSH2 0x1B8A JUMP JUMPDEST PUSH1 0xC DUP2 ADD DUP1 SLOAD PUSH1 0xFF NOT AND PUSH1 0x4 OR SWAP1 SSTORE PUSH1 0x40 MLOAD CALLER SWAP1 PUSH32 0x8E7F2465D57C0D2EE4E9F885968A20B36712B73D9D659A145DD42122BEAE92C7 SWAP1 PUSH2 0x5F7 SWAP1 DUP13 SWAP1 DUP13 SWAP1 PUSH2 0x2098 JUMP JUMPDEST DUP2 DUP2 PUSH1 0x0 DUP3 DUP3 PUSH1 0x40 MLOAD PUSH2 0x1340 SWAP3 SWAP2 SWAP1 PUSH2 0x2044 JUMP JUMPDEST SWAP1 DUP2 MSTORE PUSH1 0x40 MLOAD SWAP1 DUP2 SWAP1 SUB PUSH1 0x20 ADD SWAP1 KECCAK256 SLOAD CALLER PUSH1 0x1 PUSH1 0x1 PUSH1 0xA0 SHL SUB SWAP1 SWAP2 AND EQ PUSH2 0x137A JUMPI PUSH1 0x40 MLOAD PUSH4 0x5EC82351 PUSH1 0xE0 SHL DUP2 MSTORE PUSH1 0x4 ADD PUSH1 0x40 MLOAD DUP1 SWAP2 SUB SWAP1 REVERT JUMPDEST DUP4 DUP4 PUSH1 0x0 DUP1 PUSH1 0x0 DUP5 DUP5 PUSH1 0x40 MLOAD PUSH2 0x1391 SWAP3 SWAP2 SWAP1 PUSH2 0x2044 JUMP JUMPDEST SWAP1 DUP2 MSTORE PUSH1 0x40 MLOAD SWAP1 DUP2 SWAP1 SUB PUSH1 0x20 ADD SWAP1 KECCAK256 PUSH1 0xC ADD SLOAD PUSH1 0xFF AND SWAP1 POP DUP2 PUSH1 0x5 DUP2 GT ISZERO PUSH2 0x13BB JUMPI PUSH2 0x13BB PUSH2 0x1FAB JUMP JUMPDEST DUP2 PUSH1 0x5 DUP2 GT ISZERO PUSH2 0x13CD JUMPI PUSH2 0x13CD PUSH2 0x1FAB JUMP JUMPDEST EQ PUSH2 0x13EF JUMPI DUP1 DUP3 PUSH1 0x40 MLOAD PUSH4 0x3BF2E2F9 PUSH1 0xE1 SHL DUP2 MSTORE PUSH1 0x4 ADD PUSH2 0x54F SWAP3 SWAP2 SWAP1 PUSH2 0x2054 JUMP JUMPDEST PUSH1 0x0 DUP1 DUP10 DUP10 PUSH1 0x40 MLOAD PUSH2 0x1402 SWAP3 SWAP2 SWAP1 PUSH2 0x2044 JUMP JUMPDEST SWAP1 DUP2 MSTORE PUSH1 0x40 MLOAD SWAP1 DUP2 SWAP1 SUB PUSH1 0x20 ADD SWAP1 KECCAK256 PUSH1 0x1 DUP2 ADD SLOAD SWAP1 SWAP2 POP PUSH1 0x1 PUSH1 0x1 PUSH1 0xA0 SHL SUB AND ISZERO PUSH2 0x1440 JUMPI PUSH1 0x40 MLOAD PUSH4 0x416B68E5 PUSH1 0xE1 SHL DUP2 MSTORE PUSH1 0x4 ADD PUSH1 0x40 MLOAD DUP1 SWAP2 SUB SWAP1 REVERT JUMPDEST PUSH1 0xC DUP2 ADD DUP1 SLOAD PUSH1 0xFF NOT AND PUSH1 0x5 OR SWAP1 SSTORE PUSH1 0x40 MLOAD PUSH32 0xD5989FE57D188D07680988D847D1BC67C41C982DA0A5CBAD9F1678906266E412 SWAP1 PUSH2 0x11DC SWAP1 DUP12 SWAP1 DUP12 SWAP1 PUSH2 0x22F0 JUMP JUMPDEST DUP2 DUP2 PUSH1 0x0 PUSH1 0x1 PUSH1 0x1 PUSH1 0xA0 SHL SUB AND PUSH1 0x0 DUP4 DUP4 PUSH1 0x40 MLOAD PUSH2 0x14A0 SWAP3 SWAP2 SWAP1 PUSH2 0x2044 JUMP JUMPDEST SWAP1 DUP2 MSTORE PUSH1 0x40 MLOAD SWAP1 DUP2 SWAP1 SUB PUSH1 0x20 ADD SWAP1 KECCAK256 SLOAD PUSH1 0x1 PUSH1 0x1 PUSH1 0xA0 SHL SUB AND SUB PUSH2 0x14DB JUMPI DUP2 DUP2 PUSH1 0x40 MLOAD PUSH4 0x8A7E4CD PUSH1 0xE2 SHL DUP2 MSTORE PUSH1 0x4 ADD PUSH2 0x54F SWAP3 SWAP2 SWAP1 PUSH2 0x2098 JUMP JUMPDEST DUP4 DUP4 PUSH1 0x0 DUP3 DUP3 PUSH1 0x40 MLOAD PUSH2 0x14EF SWAP3 SWAP2 SWAP1 PUSH2 0x2044 JUMP JUMPDEST SWAP1 DUP2 MSTORE PUSH1 0x40 MLOAD SWAP1 DUP2 SWAP1 SUB PUSH1 0x20 ADD SWAP1 KECCAK256 SLOAD CALLER PUSH1 0x1 PUSH1 0x1 PUSH1 0xA0 SHL SUB SWAP1 SWAP2 AND EQ PUSH2 0x1529 JUMPI PUSH1 0x40 MLOAD PUSH4 0x5EC82351 PUSH1 0xE0 SHL DUP2 MSTORE PUSH1 0x4 ADD PUSH1 0x40 MLOAD DUP1 SWAP2 SUB SWAP1 REVERT JUMPDEST DUP6 DUP6 PUSH1 0x0 DUP1 PUSH1 0x0 DUP5 DUP5 PUSH1 0x40 MLOAD PUSH2 0x1540 SWAP3 SWAP2 SWAP1 PUSH2 0x2044 JUMP JUMPDEST SWAP1 DUP2 MSTORE PUSH1 0x40 MLOAD SWAP1 DUP2 SWAP1 SUB PUSH1 0x20 ADD SWAP1 KECCAK256 PUSH1 0xC ADD SLOAD PUSH1 0xFF AND SWAP1 POP DUP2 PUSH1 0x5 DUP2 GT ISZERO PUSH2 0x156A JUMPI PUSH2 0x156A PUSH2 0x1FAB JUMP JUMPDEST DUP2 PUSH1 0x5 DUP2 GT ISZERO PUSH2 0x157C JUMPI PUSH2 0x157C PUSH2 0x1FAB JUMP JUMPDEST EQ PUSH2 0x159E JUMPI DUP1 DUP3 PUSH1 0x40 MLOAD PUSH4 0x3BF2E2F9 PUSH1 0xE1 SHL DUP2 MSTORE PUSH1 0x4 ADD PUSH2 0x54F SWAP3 SWAP2 SWAP1 PUSH2 0x2054 JUMP JUMPDEST PUSH1 0x0 DUP1 DUP12 DUP12 PUSH1 0x40 MLOAD PUSH2 0x15B1 SWAP3 SWAP2 SWAP1 PUSH2 0x2044 JUMP JUMPDEST SWAP1 DUP2 MSTORE PUSH1 0x20 ADD PUSH1 0x40 MLOAD DUP1 SWAP2 SUB SWAP1 KECCAK256 SWAP1 POP DUP1 PUSH1 0x4 ADD SLOAD TIMESTAMP LT ISZERO PUSH2 0x15E6 JUMPI PUSH1 0x40 MLOAD PUSH4 0x9EAFE1B7 PUSH1 0xE0 SHL DUP2 MSTORE PUSH1 0x4 ADD PUSH1 0x40 MLOAD DUP1 SWAP2 SUB SWAP1 REVERT JUMPDEST DUP1 PUSH1 0x5 ADD SLOAD DUP2 PUSH1 0x2 ADD SLOAD LT ISZERO DUP1 ISZERO PUSH2 0x160A JUMPI POP PUSH1 0x1 DUP2 ADD SLOAD PUSH1 0x1 PUSH1 0x1 PUSH1 0xA0 SHL SUB AND ISZERO ISZERO JUMPDEST ISZERO PUSH2 0x1685 JUMPI PUSH1 0xC DUP2 ADD DUP1 SLOAD PUSH1 0xFF NOT AND PUSH1 0x1 OR SWAP1 SSTORE PUSH2 0x162B PUSH3 0x69780 TIMESTAMP PUSH2 0x20CA JUMP JUMPDEST PUSH1 0x9 DUP3 ADD SSTORE PUSH1 0x1 DUP2 ADD SLOAD PUSH1 0x2 DUP3 ADD SLOAD PUSH1 0x40 MLOAD PUSH1 0x1 PUSH1 0x1 PUSH1 0xA0 SHL SUB SWAP1 SWAP3 AND SWAP2 PUSH32 0xA0FB15CE4BC38FA6151BF16630E38863764A7BB541866D083619BC5B6B93AD02 SWAP2 PUSH2 0x1678 SWAP2 DUP16 SWAP2 DUP16 SWAP2 PUSH2 0x2273 JUMP JUMPDEST PUSH1 0x40 MLOAD DUP1 SWAP2 SUB SWAP1 LOG2 PUSH2 0x1712 JUMP JUMPDEST PUSH1 0x2 DUP2 ADD SLOAD ISZERO PUSH2 0x16C8 JUMPI PUSH1 0x2 DUP2 ADD SLOAD PUSH1 0x1 DUP1 DUP4 ADD SLOAD PUSH1 0x1 PUSH1 0x1 PUSH1 0xA0 SHL SUB AND PUSH1 0x0 SWAP1 DUP2 MSTORE PUSH1 0x20 SWAP2 SWAP1 SWAP2 MSTORE PUSH1 0x40 DUP2 KECCAK256 DUP1 SLOAD SWAP1 SWAP2 SWAP1 PUSH2 0x16C2 SWAP1 DUP5 SWAP1 PUSH2 0x20CA JUMP JUMPDEST SWAP1 SWAP2 SSTORE POP POP JUMPDEST PUSH1 0xC DUP2 ADD DUP1 SLOAD PUSH1 0xFF NOT AND PUSH1 0x5 OR SWAP1 SSTORE PUSH1 0x40 MLOAD PUSH32 0xD5989FE57D188D07680988D847D1BC67C41C982DA0A5CBAD9F1678906266E412 SWAP1 PUSH2 0x1709 SWAP1 DUP14 SWAP1 DUP14 SWAP1 PUSH2 0x233A JUMP JUMPDEST PUSH1 0x40 MLOAD DUP1 SWAP2 SUB SWAP1 LOG1 JUMPDEST POP POP POP POP POP POP POP POP POP POP POP JUMP JUMPDEST PUSH2 0x1727 PUSH2 0x1B6E JUMP JUMPDEST CALLER PUSH1 0x1 PUSH1 0x1 PUSH1 0xA0 SHL SUB PUSH32 0x0 AND EQ PUSH2 0x1770 JUMPI PUSH1 0x40 MLOAD PUSH4 0x665B32D3 PUSH1 0xE1 SHL DUP2 MSTORE PUSH1 0x4 ADD PUSH1 0x40 MLOAD DUP1 SWAP2 SUB SWAP1 REVERT JUMPDEST DUP3 DUP3 PUSH1 0x3 PUSH1 0x0 DUP1 DUP5 DUP5 PUSH1 0x40 MLOAD PUSH2 0x1787 SWAP3 SWAP2 SWAP1 PUSH2 0x2044 JUMP JUMPDEST SWAP1 DUP2 MSTORE PUSH1 0x40 MLOAD SWAP1 DUP2 SWAP1 SUB PUSH1 0x20 ADD SWAP1 KECCAK256 PUSH1 0xC ADD SLOAD PUSH1 0xFF AND SWAP1 POP DUP2 PUSH1 0x5 DUP2 GT ISZERO PUSH2 0x17B1 JUMPI PUSH2 0x17B1 PUSH2 0x1FAB JUMP JUMPDEST DUP2 PUSH1 0x5 DUP2 GT ISZERO PUSH2 0x17C3 JUMPI PUSH2 0x17C3 PUSH2 0x1FAB JUMP JUMPDEST EQ PUSH2 0x17E5 JUMPI DUP1 DUP3 PUSH1 0x40 MLOAD PUSH4 0x3BF2E2F9 PUSH1 0xE1 SHL DUP2 MSTORE PUSH1 0x4 ADD PUSH2 0x54F SWAP3 SWAP2 SWAP1 PUSH2 0x2054 JUMP JUMPDEST PUSH1 0x0 DUP1 DUP9 DUP9 PUSH1 0x40 MLOAD PUSH2 0x17F8 SWAP3 SWAP2 SWAP1 PUSH2 0x2044 JUMP JUMPDEST SWAP1 DUP2 MSTORE PUSH1 0x20 ADD PUSH1 0x40 MLOAD DUP1 SWAP2 SUB SWAP1 KECCAK256 SWAP1 POP DUP6 ISZERO PUSH2 0x185A JUMPI PUSH1 0x2 DUP2 ADD SLOAD PUSH1 0x1 DUP1 DUP4 ADD SLOAD PUSH1 0x1 PUSH1 0x1 PUSH1 0xA0 SHL SUB AND PUSH1 0x0 SWAP1 DUP2 MSTORE PUSH1 0x20 SWAP2 SWAP1 SWAP2 MSTORE PUSH1 0x40 DUP2 KECCAK256 DUP1 SLOAD SWAP1 SWAP2 SWAP1 PUSH2 0x1841 SWAP1 DUP5 SWAP1 PUSH2 0x20CA JUMP JUMPDEST SWAP1 SWAP2 SSTORE POP POP PUSH1 0xC DUP2 ADD DUP1 SLOAD PUSH1 0xFF NOT AND PUSH1 0x5 OR SWAP1 SSTORE PUSH2 0x1873 JUMP JUMPDEST PUSH2 0x1863 DUP2 PUSH2 0x1B8A JUMP JUMPDEST PUSH1 0xC DUP2 ADD DUP1 SLOAD PUSH1 0xFF NOT AND PUSH1 0x4 OR SWAP1 SSTORE JUMPDEST CALLER PUSH1 0x1 PUSH1 0x1 PUSH1 0xA0 SHL SUB AND PUSH32 0xA62EA04FDA58CBE56B6565AA2A55F253F8C329B7066634601BCE1F15DDCE1EE4 DUP10 DUP10 DUP10 PUSH1 0x40 MLOAD PUSH2 0x18B0 SWAP4 SWAP3 SWAP2 SWAP1 PUSH2 0x2386 JUMP JUMPDEST PUSH1 0x40 MLOAD DUP1 SWAP2 SUB SWAP1 LOG2 POP POP POP POP POP PUSH2 0x18D4 PUSH1 0x1 PUSH1 0x0 DUP1 MLOAD PUSH1 0x20 PUSH2 0x24A6 DUP4 CODECOPY DUP2 MLOAD SWAP2 MSTORE SSTORE JUMP JUMPDEST POP POP POP JUMP JUMPDEST PUSH1 0x0 DUP1 PUSH1 0x0 DUP1 PUSH1 0x0 DUP1 PUSH1 0x60 PUSH1 0x0 DUP1 PUSH1 0x0 DUP12 DUP12 PUSH1 0x40 MLOAD PUSH2 0x18F9 SWAP3 SWAP2 SWAP1 PUSH2 0x2044 JUMP JUMPDEST SWAP1 DUP2 MSTORE PUSH1 0x40 MLOAD SWAP1 DUP2 SWAP1 SUB PUSH1 0x20 ADD SWAP1 KECCAK256 DUP1 SLOAD PUSH1 0x1 DUP3 ADD SLOAD PUSH1 0x2 DUP4 ADD SLOAD PUSH1 0x3 DUP5 ADD SLOAD PUSH1 0x4 DUP6 ADD SLOAD PUSH1 0x6 DUP7 ADD SLOAD PUSH1 0xC DUP8 ADD SLOAD PUSH1 0x7 DUP9 ADD DUP1 SLOAD SWAP9 SWAP10 POP PUSH1 0x1 PUSH1 0x1 PUSH1 0xA0 SHL SUB SWAP8 DUP9 AND SWAP9 SWAP7 SWAP1 SWAP8 AND SWAP7 SWAP5 SWAP6 SWAP4 SWAP5 SWAP3 SWAP4 SWAP2 SWAP3 SWAP2 PUSH1 0xFF SWAP1 SWAP2 AND SWAP1 DUP3 SWAP1 PUSH2 0x195C SWAP1 PUSH2 0x2115 JUMP JUMPDEST DUP1 PUSH1 0x1F ADD PUSH1 0x20 DUP1 SWAP2 DIV MUL PUSH1 0x20 ADD PUSH1 0x40 MLOAD SWAP1 DUP2 ADD PUSH1 0x40 MSTORE DUP1 SWAP3 SWAP2 SWAP1 DUP2 DUP2 MSTORE PUSH1 0x20 ADD DUP3 DUP1 SLOAD PUSH2 0x1988 SWAP1 PUSH2 0x2115 JUMP JUMPDEST DUP1 ISZERO PUSH2 0x19D5 JUMPI DUP1 PUSH1 0x1F LT PUSH2 0x19AA JUMPI PUSH2 0x100 DUP1 DUP4 SLOAD DIV MUL DUP4 MSTORE SWAP2 PUSH1 0x20 ADD SWAP2 PUSH2 0x19D5 JUMP JUMPDEST DUP3 ADD SWAP2 SWAP1 PUSH1 0x0 MSTORE PUSH1 0x20 PUSH1 0x0 KECCAK256 SWAP1 JUMPDEST DUP2 SLOAD DUP2 MSTORE SWAP1 PUSH1 0x1 ADD SWAP1 PUSH1 0x20 ADD DUP1 DUP4 GT PUSH2 0x19B8 JUMPI DUP3 SWAP1 SUB PUSH1 0x1F AND DUP3 ADD SWAP2 JUMPDEST POP POP POP POP POP SWAP2 POP SWAP9 POP SWAP9 POP SWAP9 POP SWAP9 POP SWAP9 POP SWAP9 POP SWAP9 POP SWAP9 POP POP SWAP3 SWAP6 SWAP9 POP SWAP3 SWAP6 SWAP9 SWAP1 SWAP4 SWAP7 POP JUMP JUMPDEST DUP4 DUP4 PUSH1 0x0 DUP3 DUP3 PUSH1 0x40 MLOAD PUSH2 0x1A0E SWAP3 SWAP2 SWAP1 PUSH2 0x2044 JUMP JUMPDEST SWAP1 DUP2 MSTORE PUSH1 0x40 MLOAD SWAP1 DUP2 SWAP1 SUB PUSH1 0x20 ADD SWAP1 KECCAK256 SLOAD CALLER PUSH1 0x1 PUSH1 0x1 PUSH1 0xA0 SHL SUB SWAP1 SWAP2 AND EQ PUSH2 0x1A48 JUMPI PUSH1 0x40 MLOAD PUSH4 0x5EC82351 PUSH1 0xE0 SHL DUP2 MSTORE PUSH1 0x4 ADD PUSH1 0x40 MLOAD DUP1 SWAP2 SUB SWAP1 REVERT JUMPDEST DUP6 DUP6 PUSH1 0x1 PUSH1 0x0 DUP1 DUP5 DUP5 PUSH1 0x40 MLOAD PUSH2 0x1A5F SWAP3 SWAP2 SWAP1 PUSH2 0x2044 JUMP JUMPDEST SWAP1 DUP2 MSTORE PUSH1 0x40 MLOAD SWAP1 DUP2 SWAP1 SUB PUSH1 0x20 ADD SWAP1 KECCAK256 PUSH1 0xC ADD SLOAD PUSH1 0xFF AND SWAP1 POP DUP2 PUSH1 0x5 DUP2 GT ISZERO PUSH2 0x1A89 JUMPI PUSH2 0x1A89 PUSH2 0x1FAB JUMP JUMPDEST DUP2 PUSH1 0x5 DUP2 GT ISZERO PUSH2 0x1A9B JUMPI PUSH2 0x1A9B PUSH2 0x1FAB JUMP JUMPDEST EQ PUSH2 0x1ABD JUMPI DUP1 DUP3 PUSH1 0x40 MLOAD PUSH4 0x3BF2E2F9 PUSH1 0xE1 SHL DUP2 MSTORE PUSH1 0x4 ADD PUSH2 0x54F SWAP3 SWAP2 SWAP1 PUSH2 0x2054 JUMP JUMPDEST PUSH1 0x0 DUP1 DUP12 DUP12 PUSH1 0x40 MLOAD PUSH2 0x1AD0 SWAP3 SWAP2 SWAP1 PUSH2 0x2044 JUMP JUMPDEST SWAP1 DUP2 MSTORE PUSH1 0x20 ADD PUSH1 0x40 MLOAD DUP1 SWAP2 SUB SWAP1 KECCAK256 SWAP1 POP DUP1 PUSH1 0x9 ADD SLOAD TIMESTAMP GT ISZERO PUSH2 0x1B05 JUMPI PUSH1 0x40 MLOAD PUSH4 0xE84DE25 PUSH1 0xE1 SHL DUP2 MSTORE PUSH1 0x4 ADD PUSH1 0x40 MLOAD DUP1 SWAP2 SUB SWAP1 REVERT JUMPDEST PUSH1 0x8 DUP2 ADD PUSH2 0x1B14 DUP10 DUP12 DUP4 PUSH2 0x23AC JUMP JUMPDEST POP PUSH2 0x1B22 PUSH3 0x127500 TIMESTAMP PUSH2 0x20CA JUMP JUMPDEST PUSH1 0xA DUP3 ADD SSTORE PUSH1 0xC DUP2 ADD DUP1 SLOAD PUSH1 0xFF NOT AND PUSH1 0x2 OR SWAP1 SSTORE PUSH1 0x40 MLOAD CALLER SWAP1 PUSH32 0xDE3AF44D31CC177418AA26BB805C695B79C76478F12D0EFFF2D89CD2C343FDE5 SWAP1 PUSH2 0x788 SWAP1 DUP15 SWAP1 DUP15 SWAP1 DUP15 SWAP1 DUP15 SWAP1 PUSH2 0x20E3 JUMP JUMPDEST PUSH2 0x1B76 PUSH2 0x1CEE JUMP JUMPDEST PUSH1 0x2 PUSH1 0x0 DUP1 MLOAD PUSH1 0x20 PUSH2 0x24A6 DUP4 CODECOPY DUP2 MLOAD SWAP2 MSTORE SSTORE JUMP JUMPDEST PUSH1 0x2 DUP2 ADD SLOAD PUSH1 0x0 PUSH2 0x2710 PUSH2 0x1BBE PUSH32 0x0 DUP5 PUSH2 0x246C JUMP JUMPDEST PUSH2 0x1BC8 SWAP2 SWAP1 PUSH2 0x2483 JUMP JUMPDEST SWAP1 POP PUSH1 0x0 PUSH2 0x1BD6 DUP3 DUP5 PUSH2 0x2297 JUMP JUMPDEST SWAP1 POP DUP2 ISZERO PUSH2 0x1C74 JUMPI PUSH1 0x0 PUSH32 0x0 PUSH1 0x1 PUSH1 0x1 PUSH1 0xA0 SHL SUB AND DUP4 PUSH1 0x40 MLOAD PUSH1 0x0 PUSH1 0x40 MLOAD DUP1 DUP4 SUB DUP2 DUP6 DUP8 GAS CALL SWAP3 POP POP POP RETURNDATASIZE DUP1 PUSH1 0x0 DUP2 EQ PUSH2 0x1C4B JUMPI PUSH1 0x40 MLOAD SWAP2 POP PUSH1 0x1F NOT PUSH1 0x3F RETURNDATASIZE ADD AND DUP3 ADD PUSH1 0x40 MSTORE RETURNDATASIZE DUP3 MSTORE RETURNDATASIZE PUSH1 0x0 PUSH1 0x20 DUP5 ADD RETURNDATACOPY PUSH2 0x1C50 JUMP JUMPDEST PUSH1 0x60 SWAP2 POP JUMPDEST POP POP SWAP1 POP DUP1 PUSH2 0x1C72 JUMPI PUSH1 0x40 MLOAD PUSH4 0x12171D83 PUSH1 0xE3 SHL DUP2 MSTORE PUSH1 0x4 ADD PUSH1 0x40 MLOAD DUP1 SWAP2 SUB SWAP1 REVERT JUMPDEST POP JUMPDEST DUP4 SLOAD PUSH1 0x40 MLOAD PUSH1 0x0 SWAP2 PUSH1 0x1 PUSH1 0x1 PUSH1 0xA0 SHL SUB AND SWAP1 DUP4 SWAP1 DUP4 DUP2 DUP2 DUP2 DUP6 DUP8 GAS CALL SWAP3 POP POP POP RETURNDATASIZE DUP1 PUSH1 0x0 DUP2 EQ PUSH2 0x1CC0 JUMPI PUSH1 0x40 MLOAD SWAP2 POP PUSH1 0x1F NOT PUSH1 0x3F RETURNDATASIZE ADD AND DUP3 ADD PUSH1 0x40 MSTORE RETURNDATASIZE DUP3 MSTORE RETURNDATASIZE PUSH1 0x0 PUSH1 0x20 DUP5 ADD RETURNDATACOPY PUSH2 0x1CC5 JUMP JUMPDEST PUSH1 0x60 SWAP2 POP JUMPDEST POP POP SWAP1 POP DUP1 PUSH2 0x1CE7 JUMPI PUSH1 0x40 MLOAD PUSH4 0x12171D83 PUSH1 0xE3 SHL DUP2 MSTORE PUSH1 0x4 ADD PUSH1 0x40 MLOAD DUP1 SWAP2 SUB SWAP1 REVERT JUMPDEST POP POP POP POP POP JUMP JUMPDEST PUSH1 0x0 DUP1 MLOAD PUSH1 0x20 PUSH2 0x24A6 DUP4 CODECOPY DUP2 MLOAD SWAP2 MSTORE SLOAD PUSH1 0x2 SUB PUSH2 0x89C JUMPI PUSH1 0x40 MLOAD PUSH4 0x3EE5AEB5 PUSH1 0xE0 SHL DUP2 MSTORE PUSH1 0x4 ADD PUSH1 0x40 MLOAD DUP1 SWAP2 SUB SWAP1 REVERT JUMPDEST PUSH1 0x0 DUP1 DUP4 PUSH1 0x1F DUP5 ADD SLT PUSH2 0x1D30 JUMPI PUSH1 0x0 DUP1 REVERT JUMPDEST POP DUP2 CALLDATALOAD PUSH8 0xFFFFFFFFFFFFFFFF DUP2 GT ISZERO PUSH2 0x1D48 JUMPI PUSH1 0x0 DUP1 REVERT JUMPDEST PUSH1 0x20 DUP4 ADD SWAP2 POP DUP4 PUSH1 0x20 DUP3 DUP6 ADD ADD GT ISZERO PUSH2 0x1D60 JUMPI PUSH1 0x0 DUP1 REVERT JUMPDEST SWAP3 POP SWAP3 SWAP1 POP JUMP JUMPDEST PUSH1 0x0 DUP1 PUSH1 0x20 DUP4 DUP6 SUB SLT ISZERO PUSH2 0x1D7A JUMPI PUSH1 0x0 DUP1 REVERT JUMPDEST DUP3 CALLDATALOAD PUSH8 0xFFFFFFFFFFFFFFFF DUP2 GT ISZERO PUSH2 0x1D91 JUMPI PUSH1 0x0 DUP1 REVERT JUMPDEST PUSH2 0x1D9D DUP6 DUP3 DUP7 ADD PUSH2 0x1D1E JUMP JUMPDEST SWAP1 SWAP7 SWAP1 SWAP6 POP SWAP4 POP POP POP POP JUMP JUMPDEST PUSH1 0x0 PUSH1 0x20 DUP3 DUP5 SUB SLT ISZERO PUSH2 0x1DBB JUMPI PUSH1 0x0 DUP1 REVERT JUMPDEST DUP2 CALLDATALOAD PUSH1 0x1 PUSH1 0x1 PUSH1 0xA0 SHL SUB DUP2 AND DUP2 EQ PUSH2 0x1DD2 JUMPI PUSH1 0x0 DUP1 REVERT JUMPDEST SWAP4 SWAP3 POP POP POP JUMP JUMPDEST PUSH1 0x0 DUP1 PUSH1 0x0 DUP1 PUSH1 0x40 DUP6 DUP8 SUB SLT ISZERO PUSH2 0x1DEF JUMPI PUSH1 0x0 DUP1 REVERT JUMPDEST DUP5 CALLDATALOAD PUSH8 0xFFFFFFFFFFFFFFFF DUP1 DUP3 GT ISZERO PUSH2 0x1E07 JUMPI PUSH1 0x0 DUP1 REVERT JUMPDEST PUSH2 0x1E13 DUP9 DUP4 DUP10 ADD PUSH2 0x1D1E JUMP JUMPDEST SWAP1 SWAP7 POP SWAP5 POP PUSH1 0x20 DUP8 ADD CALLDATALOAD SWAP2 POP DUP1 DUP3 GT ISZERO PUSH2 0x1E2C JUMPI PUSH1 0x0 DUP1 REVERT JUMPDEST POP PUSH2 0x1E39 DUP8 DUP3 DUP9 ADD PUSH2 0x1D1E JUMP JUMPDEST SWAP6 SWAP9 SWAP5 SWAP8 POP SWAP6 POP POP POP POP JUMP JUMPDEST PUSH1 0x0 DUP2 MLOAD DUP1 DUP5 MSTORE PUSH1 0x0 JUMPDEST DUP2 DUP2 LT ISZERO PUSH2 0x1E6B JUMPI PUSH1 0x20 DUP2 DUP6 ADD DUP2 ADD MLOAD DUP7 DUP4 ADD DUP3 ADD MSTORE ADD PUSH2 0x1E4F JUMP JUMPDEST POP PUSH1 0x0 PUSH1 0x20 DUP3 DUP7 ADD ADD MSTORE PUSH1 0x20 PUSH1 0x1F NOT PUSH1 0x1F DUP4 ADD AND DUP6 ADD ADD SWAP2 POP POP SWAP3 SWAP2 POP POP JUMP JUMPDEST PUSH1 0xA0 DUP2 MSTORE PUSH1 0x0 PUSH2 0x1E9E PUSH1 0xA0 DUP4 ADD DUP9 PUSH2 0x1E45 JUMP JUMPDEST SWAP1 POP DUP6 PUSH1 0x20 DUP4 ADD MSTORE DUP5 PUSH1 0x40 DUP4 ADD MSTORE DUP4 PUSH1 0x60 DUP4 ADD MSTORE DUP3 PUSH1 0x80 DUP4 ADD MSTORE SWAP7 SWAP6 POP POP POP POP POP POP JUMP JUMPDEST PUSH1 0x0 DUP1 PUSH1 0x0 DUP1 PUSH1 0x0 DUP1 PUSH1 0x0 PUSH1 0xA0 DUP9 DUP11 SUB SLT ISZERO PUSH2 0x1EDD JUMPI PUSH1 0x0 DUP1 REVERT JUMPDEST DUP8 CALLDATALOAD PUSH8 0xFFFFFFFFFFFFFFFF DUP1 DUP3 GT ISZERO PUSH2 0x1EF5 JUMPI PUSH1 0x0 DUP1 REVERT JUMPDEST PUSH2 0x1F01 DUP12 DUP4 DUP13 ADD PUSH2 0x1D1E JUMP JUMPDEST SWAP1 SWAP10 POP SWAP8 POP PUSH1 0x20 DUP11 ADD CALLDATALOAD SWAP7 POP PUSH1 0x40 DUP11 ADD CALLDATALOAD SWAP6 POP PUSH1 0x60 DUP11 ADD CALLDATALOAD SWAP5 POP PUSH1 0x80 DUP11 ADD CALLDATALOAD SWAP2 POP DUP1 DUP3 GT ISZERO PUSH2 0x1F2F JUMPI PUSH1 0x0 DUP1 REVERT JUMPDEST POP PUSH2 0x1F3C DUP11 DUP3 DUP12 ADD PUSH2 0x1D1E JUMP JUMPDEST SWAP9 SWAP12 SWAP8 SWAP11 POP SWAP6 SWAP9 POP SWAP4 SWAP7 SWAP3 SWAP6 SWAP3 SWAP4 POP POP POP JUMP JUMPDEST PUSH1 0x0 DUP1 PUSH1 0x0 PUSH1 0x40 DUP5 DUP7 SUB SLT ISZERO PUSH2 0x1F64 JUMPI PUSH1 0x0 DUP1 REVERT JUMPDEST DUP4 CALLDATALOAD PUSH8 0xFFFFFFFFFFFFFFFF DUP2 GT ISZERO PUSH2 0x1F7B JUMPI PUSH1 0x0 DUP1 REVERT JUMPDEST PUSH2 0x1F87 DUP7 DUP3 DUP8 ADD PUSH2 0x1D1E JUMP JUMPDEST SWAP1 SWAP5 POP SWAP3 POP POP PUSH1 0x20 DUP5 ADD CALLDATALOAD DUP1 ISZERO ISZERO DUP2 EQ PUSH2 0x1FA0 JUMPI PUSH1 0x0 DUP1 REVERT JUMPDEST DUP1 SWAP2 POP POP SWAP3 POP SWAP3 POP SWAP3 JUMP JUMPDEST PUSH4 0x4E487B71 PUSH1 0xE0 SHL PUSH1 0x0 MSTORE PUSH1 0x21 PUSH1 0x4 MSTORE PUSH1 0x24 PUSH1 0x0 REVERT JUMPDEST PUSH1 0x6 DUP2 LT PUSH2 0x1FDF JUMPI PUSH4 0x4E487B71 PUSH1 0xE0 SHL PUSH1 0x0 MSTORE PUSH1 0x21 PUSH1 0x4 MSTORE PUSH1 0x24 PUSH1 0x0 REVERT JUMPDEST SWAP1 MSTORE JUMP JUMPDEST PUSH1 0x0 PUSH2 0x100 PUSH1 0x1 DUP1 PUSH1 0xA0 SHL SUB DUP1 DUP13 AND DUP5 MSTORE DUP1 DUP12 AND PUSH1 0x20 DUP6 ADD MSTORE POP DUP9 PUSH1 0x40 DUP5 ADD MSTORE DUP8 PUSH1 0x60 DUP5 ADD MSTORE DUP7 PUSH1 0x80 DUP5 ADD MSTORE DUP6 PUSH1 0xA0 DUP5 ADD MSTORE DUP1 PUSH1 0xC0 DUP5 ADD MSTORE PUSH2 0x2027 DUP2 DUP5 ADD DUP7 PUSH2 0x1E45 JUMP JUMPDEST SWAP2 POP POP PUSH2 0x2037 PUSH1 0xE0 DUP4 ADD DUP5 PUSH2 0x1FC1 JUMP JUMPDEST SWAP10 SWAP9 POP POP POP POP POP POP POP POP POP JUMP JUMPDEST DUP2 DUP4 DUP3 CALLDATACOPY PUSH1 0x0 SWAP2 ADD SWAP1 DUP2 MSTORE SWAP2 SWAP1 POP JUMP JUMPDEST PUSH1 0x40 DUP2 ADD PUSH2 0x2062 DUP3 DUP6 PUSH2 0x1FC1 JUMP JUMPDEST PUSH2 0x1DD2 PUSH1 0x20 DUP4 ADD DUP5 PUSH2 0x1FC1 JUMP JUMPDEST DUP2 DUP4 MSTORE DUP2 DUP2 PUSH1 0x20 DUP6 ADD CALLDATACOPY POP PUSH1 0x0 DUP3 DUP3 ADD PUSH1 0x20 SWAP1 DUP2 ADD SWAP2 SWAP1 SWAP2 MSTORE PUSH1 0x1F SWAP1 SWAP2 ADD PUSH1 0x1F NOT AND SWAP1 SWAP2 ADD ADD SWAP1 JUMP JUMPDEST PUSH1 0x20 DUP2 MSTORE PUSH1 0x0 PUSH2 0x20AC PUSH1 0x20 DUP4 ADD DUP5 DUP7 PUSH2 0x206F JUMP JUMPDEST SWAP5 SWAP4 POP POP POP POP JUMP JUMPDEST PUSH4 0x4E487B71 PUSH1 0xE0 SHL PUSH1 0x0 MSTORE PUSH1 0x11 PUSH1 0x4 MSTORE PUSH1 0x24 PUSH1 0x0 REVERT JUMPDEST DUP1 DUP3 ADD DUP1 DUP3 GT ISZERO PUSH2 0x20DD JUMPI PUSH2 0x20DD PUSH2 0x20B4 JUMP JUMPDEST SWAP3 SWAP2 POP POP JUMP JUMPDEST PUSH1 0x40 DUP2 MSTORE PUSH1 0x0 PUSH2 0x20F7 PUSH1 0x40 DUP4 ADD DUP7 DUP9 PUSH2 0x206F JUMP JUMPDEST DUP3 DUP2 SUB PUSH1 0x20 DUP5 ADD MSTORE PUSH2 0x210A DUP2 DUP6 DUP8 PUSH2 0x206F JUMP JUMPDEST SWAP8 SWAP7 POP POP POP POP POP POP POP JUMP JUMPDEST PUSH1 0x1 DUP2 DUP2 SHR SWAP1 DUP3 AND DUP1 PUSH2 0x2129 JUMPI PUSH1 0x7F DUP3 AND SWAP2 POP JUMPDEST PUSH1 0x20 DUP3 LT DUP2 SUB PUSH2 0x2149 JUMPI PUSH4 0x4E487B71 PUSH1 0xE0 SHL PUSH1 0x0 MSTORE PUSH1 0x22 PUSH1 0x4 MSTORE PUSH1 0x24 PUSH1 0x0 REVERT JUMPDEST POP SWAP2 SWAP1 POP JUMP JUMPDEST PUSH4 0x4E487B71 PUSH1 0xE0 SHL PUSH1 0x0 MSTORE PUSH1 0x41 PUSH1 0x4 MSTORE PUSH1 0x24 PUSH1 0x0 REVERT JUMPDEST PUSH1 0x1F DUP3 GT ISZERO PUSH2 0x18D4 JUMPI PUSH1 0x0 DUP2 DUP2 MSTORE PUSH1 0x20 DUP2 KECCAK256 PUSH1 0x1F DUP6 ADD PUSH1 0x5 SHR DUP2 ADD PUSH1 0x20 DUP7 LT ISZERO PUSH2 0x218C JUMPI POP DUP1 JUMPDEST PUSH1 0x1F DUP6 ADD PUSH1 0x5 SHR DUP3 ADD SWAP2 POP JUMPDEST DUP2 DUP2 LT ISZERO PUSH2 0x21AB JUMPI DUP3 DUP2 SSTORE PUSH1 0x1 ADD PUSH2 0x2198 JUMP JUMPDEST POP POP POP POP POP POP JUMP JUMPDEST DUP2 MLOAD PUSH8 0xFFFFFFFFFFFFFFFF DUP2 GT ISZERO PUSH2 0x21CD JUMPI PUSH2 0x21CD PUSH2 0x214F JUMP JUMPDEST PUSH2 0x21E1 DUP2 PUSH2 0x21DB DUP5 SLOAD PUSH2 0x2115 JUMP JUMPDEST DUP5 PUSH2 0x2165 JUMP JUMPDEST PUSH1 0x20 DUP1 PUSH1 0x1F DUP4 GT PUSH1 0x1 DUP2 EQ PUSH2 0x2216 JUMPI PUSH1 0x0 DUP5 ISZERO PUSH2 0x21FE JUMPI POP DUP6 DUP4 ADD MLOAD JUMPDEST PUSH1 0x0 NOT PUSH1 0x3 DUP7 SWAP1 SHL SHR NOT AND PUSH1 0x1 DUP6 SWAP1 SHL OR DUP6 SSTORE PUSH2 0x21AB JUMP JUMPDEST PUSH1 0x0 DUP6 DUP2 MSTORE PUSH1 0x20 DUP2 KECCAK256 PUSH1 0x1F NOT DUP7 AND SWAP2 JUMPDEST DUP3 DUP2 LT ISZERO PUSH2 0x2245 JUMPI DUP9 DUP7 ADD MLOAD DUP3 SSTORE SWAP5 DUP5 ADD SWAP5 PUSH1 0x1 SWAP1 SWAP2 ADD SWAP1 DUP5 ADD PUSH2 0x2226 JUMP JUMPDEST POP DUP6 DUP3 LT ISZERO PUSH2 0x2263 JUMPI DUP8 DUP6 ADD MLOAD PUSH1 0x0 NOT PUSH1 0x3 DUP9 SWAP1 SHL PUSH1 0xF8 AND SHR NOT AND DUP2 SSTORE JUMPDEST POP POP POP POP POP PUSH1 0x1 SWAP1 DUP2 SHL ADD SWAP1 SSTORE POP JUMP JUMPDEST PUSH1 0x40 DUP2 MSTORE PUSH1 0x0 PUSH2 0x2287 PUSH1 0x40 DUP4 ADD DUP6 DUP8 PUSH2 0x206F JUMP JUMPDEST SWAP1 POP DUP3 PUSH1 0x20 DUP4 ADD MSTORE SWAP5 SWAP4 POP POP POP POP JUMP JUMPDEST DUP2 DUP2 SUB DUP2 DUP2 GT ISZERO PUSH2 0x20DD JUMPI PUSH2 0x20DD PUSH2 0x20B4 JUMP JUMPDEST PUSH1 0x40 DUP2 MSTORE PUSH1 0x0 PUSH2 0x22BE PUSH1 0x40 DUP4 ADD DUP5 DUP7 PUSH2 0x206F JUMP JUMPDEST DUP3 DUP2 SUB PUSH1 0x20 DUP5 ADD MSTORE PUSH1 0xF DUP2 MSTORE PUSH15 0x111A5CDC1D5D19481D1A5B595BDD5D PUSH1 0x8A SHL PUSH1 0x20 DUP3 ADD MSTORE PUSH1 0x40 DUP2 ADD SWAP2 POP POP SWAP4 SWAP3 POP POP POP JUMP JUMPDEST PUSH1 0x40 DUP2 MSTORE PUSH1 0x0 PUSH2 0x2304 PUSH1 0x40 DUP4 ADD DUP5 DUP7 PUSH2 0x206F JUMP JUMPDEST DUP3 DUP2 SUB PUSH1 0x20 DUP5 ADD MSTORE PUSH1 0x13 DUP2 MSTORE PUSH19 0x21B0B731B2B63632B210313C9039B2B63632B9 PUSH1 0x69 SHL PUSH1 0x20 DUP3 ADD MSTORE PUSH1 0x40 DUP2 ADD SWAP2 POP POP SWAP4 SWAP3 POP POP POP JUMP JUMPDEST PUSH1 0x40 DUP2 MSTORE PUSH1 0x0 PUSH2 0x234E PUSH1 0x40 DUP4 ADD DUP5 DUP7 PUSH2 0x206F JUMP JUMPDEST DUP3 DUP2 SUB PUSH1 0x20 DUP5 ADD MSTORE PUSH1 0x15 DUP2 MSTORE PUSH21 0x14995CD95C9D99481C1C9A58D9481B9BDD081B595D PUSH1 0x5A SHL PUSH1 0x20 DUP3 ADD MSTORE PUSH1 0x40 DUP2 ADD SWAP2 POP POP SWAP4 SWAP3 POP POP POP JUMP JUMPDEST PUSH1 0x40 DUP2 MSTORE PUSH1 0x0 PUSH2 0x239A PUSH1 0x40 DUP4 ADD DUP6 DUP8 PUSH2 0x206F JUMP JUMPDEST SWAP1 POP DUP3 ISZERO ISZERO PUSH1 0x20 DUP4 ADD MSTORE SWAP5 SWAP4 POP POP POP POP JUMP JUMPDEST PUSH8 0xFFFFFFFFFFFFFFFF DUP4 GT ISZERO PUSH2 0x23C4 JUMPI PUSH2 0x23C4 PUSH2 0x214F JUMP JUMPDEST PUSH2 0x23D8 DUP4 PUSH2 0x23D2 DUP4 SLOAD PUSH2 0x2115 JUMP JUMPDEST DUP4 PUSH2 0x2165 JUMP JUMPDEST PUSH1 0x0 PUSH1 0x1F DUP5 GT PUSH1 0x1 DUP2 EQ PUSH2 0x240C JUMPI PUSH1 0x0 DUP6 ISZERO PUSH2 0x23F4 JUMPI POP DUP4 DUP3 ADD CALLDATALOAD JUMPDEST PUSH1 0x0 NOT PUSH1 0x3 DUP8 SWAP1 SHL SHR NOT AND PUSH1 0x1 DUP7 SWAP1 SHL OR DUP4 SSTORE PUSH2 0x1CE7 JUMP JUMPDEST PUSH1 0x0 DUP4 DUP2 MSTORE PUSH1 0x20 SWAP1 KECCAK256 PUSH1 0x1F NOT DUP7 AND SWAP1 DUP4 JUMPDEST DUP3 DUP2 LT ISZERO PUSH2 0x243D JUMPI DUP7 DUP6 ADD CALLDATALOAD DUP3 SSTORE PUSH1 0x20 SWAP5 DUP6 ADD SWAP5 PUSH1 0x1 SWAP1 SWAP3 ADD SWAP2 ADD PUSH2 0x241D JUMP JUMPDEST POP DUP7 DUP3 LT ISZERO PUSH2 0x245A JUMPI PUSH1 0x0 NOT PUSH1 0xF8 DUP9 PUSH1 0x3 SHL AND SHR NOT DUP5 DUP8 ADD CALLDATALOAD AND DUP2 SSTORE JUMPDEST POP POP PUSH1 0x1 DUP6 PUSH1 0x1 SHL ADD DUP4 SSTORE POP POP POP POP POP JUMP JUMPDEST DUP1 DUP3 MUL DUP2 ISZERO DUP3 DUP3 DIV DUP5 EQ OR PUSH2 0x20DD JUMPI PUSH2 0x20DD PUSH2 0x20B4 JUMP JUMPDEST PUSH1 0x0 DUP3 PUSH2 0x24A0 JUMPI PUSH4 0x4E487B71 PUSH1 0xE0 SHL PUSH1 0x0 MSTORE PUSH1 0x12 PUSH1 0x4 MSTORE PUSH1 0x24 PUSH1 0x0 REVERT JUMPDEST POP DIV SWAP1 JUMP INVALID SWAP12 PUSH24 0x9B17422D0DF92223018B32B4D1FA46E071723D6817E2486D STOP EXTCODESIZE 0xEC 0xC5 PUSH0 STOP LOG2 PUSH5 0x6970667358 0x22 SLT KECCAK256 0xB6 DUP9 PUSH22 0x5915CBB4BB335371B915E251B57D2D320F56B00DCE89 CALLDATALOAD MSIZE 0xE0 0x2A 0xAD 0x4E PUSH26 0x64736F6C63430008140033000000000000000000000000000000 "},"methodIdentifiers":{"ANTI_SNIPE_EXTENSION()":"d789a68d","ANTI_SNIPE_WINDOW()":"debe3c1d","DELIVERY_WINDOW()":"e995478e","DISPUTE_WINDOW()":"f585dc57","MAX_FEE_BPS()":"d55be8c6","SHIPPING_WINDOW()":"4c266c08","arbiter()":"fe25e00a","bid(string)":"7aef951c","cancelAuction(string)":"b60e7a3b","claimDeliveryTimeout(string)":"1d6ab05a","claimDisputeTimeout(string)":"81b1102c","claimShippingTimeout(string)":"45582af5","confirmDelivery(string)":"a4506460","createAuction(string,uint256,uint256,uint256,string)":"41e776ac","endAuction(string)":"ce2ba9bf","getAuction(string)":"edd81849","getAuctionTimeline(string)":"3e433491","markShipped(string,string)":"ff70a162","openDispute(string,string)":"386e52e0","pendingReturns(address)":"26b387bb","platformFeeBps()":"22dcd13e","platformWallet()":"fa2af9da","resolveDispute(string,bool)":"ce422626","withdraw()":"3ccfd60b"}}}}}